:100000000C94471E0C946F1E0C946F1E0C946F1E64
:100010000C946F1E0C946F1E0C946F1E0C946F1E2C
:100020000C946F1E0C946D2A0C946F1E0C946F1E12
:100030000C946F1E0C946F1E0C946F1E0C946F1E0C
:100040000C949B1E0C946F1E0C94711E0C946F1ECE
:100050000C946F1E0C946F1E0C946F1E0C946F1EEC
:100060000C946F1E0C946F1E0000005912185B0058
:1000700000702700980000000304053F7366706C51
:1000800068F000207700010100000005043D3D02FA
:10009000007F00000604F40C0201070600030502BD
:1000A00008010005043D3D03007F00000605E81837
:1000B00002010707007F00030908003F01230A0926
:1000C000003F01250B0A003F01242F0B0005043DD2
:1000D0003D0C007F001C270D003F0126400E003F15
:1000E000023E3E0F003F023F3F10007F00324412AD
:1000F000007F00454514007F00464616007F0047FC
:100100004711007F00324413007F00454515007FF2
:1001100000464617007F0047471800040633481A78
:10012000008F07344919000406354A1B008F073633
:100130004B1F000D084C4C1C000F09374D1D000AC9
:100140000A384E1EC13F02394F4623F60D3B534736
:10015000000401505048003B0B0C0C49004F0E0DA1
:100160000D52FE020250505300200C515154C13F19
:100170000204055500320F3A525F000F0186865E79
:100180000110018787A937AD37B137B437B837BC0D
:1001900037C237CC37D237DB37E237EA37F337FBB2
:1001A0003702380F381C3825383138353839383D62
:1001B000384138453849384D385138553859385D07
:1001C000386138653869386C386F38713875387906
:1001D000387D38813888388C38913896389B38A0EB
:1001E00038A738AB38B138B838BD38C138C538C988
:1001F00038CD38D138D538D938DD38E138E538E967
:1002000038EF38F83801390B39163921392B3932A2
:100210003938394039483952395C3966397039755D
:10022000397C3982398939903995399F39A539AB6B
:1002300039B239B739C239CB39CF39D239D639DAAF
:1002400039DE39E039E439E839EC39F039F439F894
:1002500039FC39003A043A083A0C3A103A143A1880
:100260003A1C3A203A243A293A2E3A353A393A4059
:100270003A473A4E3A523A563A5A3A613A663A6BE5
:100280003A703A753A7A3A7E3A823A863A8A3A8EA1
:100290003A923A983A9F3AAF3AC03AC63AD43ADFDD
:1002A0003AEE3AF33AF83AFD3A043B0B3B123B196B
:1002B0003B203B313B423B483B4D3B543B5B3B612E
:1002C0003B683B6F3B763B7C3B823B883B8F3B955F
:1002D0003B9A3BA13BA83BAF3BB63BBD3BC43BCBB2
:1002E0003BD23BD93BE03BE63BED3BF43BFB3B02E7
:1002F0003C093C103C173C040004000400040005C9
:1003000000050005000600060007000700070008BA
:1003100000080009000A000A000B000B000C000D89
:10032000000E000F000F0010001100120014001545
:10033000001600170019001A001C001E00200021E2
:10034000002300260028002A002D0030003200364D
:100350000039003C004000440048004C0051005669
:10036000005B00600066006C00730079008100880B
:100370000091009900A200AC00B700C100CD00D9E7
:1003800000E600F400030112012301340147015A81
:10039000016F0185019C01B501CF01EB0108022726
:1003A0000248026B029102B802E2020E033C036EA5
:1003B00003A303DA03150454049604DC042705762A
:1003C00005C90522068006E4064D07BD073308B1BE
:1003D000083609C309590AF70A9F0B510C0E0DD6AE
:1003E0000DA90E8A0F781074117F129B13C7140584
:1003F000165617BC18361AFE7F9067B254EF454068
:100400003AE9305E293A232F1E031A89169F132AD0
:1004100011140F4D0DC70B770A550959087D07BDFB
:100420000614068005FD0488042104C5037203290F
:1004300003E702AB02750245021902F101CD01ACDE
:10044000018E017201590142012D0119010701F7C5
:1004500000E800DA00CD00C000B500AB00A10098B4
:10046000009000880081007A0074006E00680063CC
:10047000005E005900550051004D00490046004300
:100480000040003D003A0038003500330031002FB5
:10049000002D002B00290027002600240023002225
:1004A0000020001F001E001D001C001B001A001968
:1004B0000018001700160015001500140013001393
:1004C00000120011001100100010000F000F000EAC
:1004D000000E000D000D000C000C000C000B000BBA
:1004E000000B000A000A000A0009000900090009BF
:1004F00000080008000800251129112D11311135BF
:100500001139113D114111451149114D115111552B
:100510001159115D116111651169116D117111751B
:100520001179117D118111851189118D119111950B
:100530001199119D11A111A511AA11AE11B211B6F7
:1005400011BA11BE11C211C611CA11CE11D311D7E1
:1005500011DB11DF11E311E711EB11EF11F411F8C9
:1005600011FC110012041208120D121112151219A9
:10057000121D12211226122A122E12321236123B8C
:10058000123F12431247124C125012541258125C6E
:10059000126112651269126D12721276127A127F4E
:1005A00012831287128B129012941298129D12A12C
:1005B00012A512A912AE12B212B612BB12BF12C30A
:1005C00012C812CC12D012D512D912DE12E212E6E3
:1005D00012EB12EF12F312F812FC120113051309B9
:1005E000130E13121317131B131F13241328132D89
:1005F00013311335133A133E13431347134C13505F
:1006000013551359135E13621367136B137013742E
:100610001379137D13821386138B138F13941398FE
:10062000139D13A113A613AA13AF13B313B813BCCE
:1006300013C113C613CA13CF13D313D813DC13E19A
:1006400013E613EA13EF13F313F813FD1301140663
:10065000140B140F14141419141D14221426142B23
:10066000143014341439143E14421447144C1451E9
:100670001455145A145F14631468146D14711476AD
:10068000147B148014841489148E14931497149C6E
:1006900014A114A614AA14AF14B414B914BE14C22D
:1006A00014C714CC14D114D614DA14DF14E414E9EA
:1006B00014EE14F314F714FC14011506150B1510A1
:1006C00015151519151E15231528152D1532153755
:1006D000153C15411546154A154F15541559155E0B
:1006E00015631568156D15721577157C15811586BE
:1006F000158B15901595159A159F15A415A915AE6E
:1007000015B315B815BD15C215C715CC15D115D61D
:1007100015DB15E015E515EA15EF15F415F915FECD
:1007200015041609160E16131618161D162216276E
:10073000162C16321637163C16411646164B165016
:100740001656165B16601665166A166F1675167ABB
:10075000167F16841689168F16941699169E16A360
:1007600016A916AE16B316B816BE16C316C816CD01
:1007700016D316D816DD16E316E816ED16F216F89F
:1007800016FD16021708170D17121718171D172236
:100790001728172D17321738173D17431748174DCD
:1007A00017531758175D17631768176E1773177964
:1007B000177E17831789178E17941799179F17A4F9
:1007C00017AA17AF17B417BA17BF17C517CA17D08C
:1007D00017D517DB17E017E617EC17F117F717FC1B
:1007E00017021807180D18121818181D18231829A1
:1007F000182E18341839183F1845184A185018552B
:10080000185B18611866186C18721877187D1883B1
:100810001888188E18941899189F18A518AA18B037
:1008200018B618BB18C118C718CD18D218D818DEBA
:1008300018E418E918EF18F518FB18001906190C38
:1008400019121918191D19231929192F1935193AAF
:1008500019401946194C19521958195E196319692A
:10086000196F1975197B19811987198D19921998A2
:10087000199E19A419AA19B019B619BC19C219C818
:1008800019CE19D419DA19E019E619EC19F219F888
:1008900019FE19041A0A1A101A161A1C1A221A28F2
:1008A0001A2E1A341A3A1A401A461A4C1A521A5860
:1008B0001A5E1A651A6B1A711A771A7D1A831A89C9
:1008C0001A8F1A961A9C1AA21AA81AAE1AB41ABB30
:1008D0001AC11AC71ACD1AD31AD91AE01AE61AEC95
:1008E0001AF21AF91AFF1A051B0B1B121B181B1EF2
:1008F0001B241B2B1B311B371B3D1B441B4A1B504E
:100900001B571B5D1B631B6A1B701B761B7D1B83A8
:100910001B891B901B961B9D1BA31BA91BB01BB601
:100920001BBC1BC31BC91BD01BD61BDD1BE31BE958
:100930001BF01BF61BFD1B031C0A1C101C171C1DA7
:100940001C241C2A1C311C371C3E1C441C4B1C51F3
:100950001C581C5F1C651C6C1C721C791C7F1C863F
:100960001C8D1C931C9A1CA01CA71CAE1CB41CBB89
:100970001CC21CC81CCF1CD51CDC1CE31CE91CF0D1
:100980001CF71CFE1C041D0B1D121D181D1F1D260F
:100990001D2D1D331D3A1D411D481D4E1D551D5C4D
:1009A0001D631D6A1D701D771D7E1D851D8C1D928A
:1009B0001D991DA01DA71DAE1DB51DBC1DC21DC9C5
:1009C0001DD01DD71DDE1DE51DEC1DF31DFA1D01FB
:1009D0001E071E0E1E151E1C1E231E2A1E311E382B
:1009E0001E3F1E461E4D1E541E5B1E621E691E705B
:1009F0001E771E7E1E851E8C1E931E9B1EA21EA988
:100A00001EB01EB71EBE1EC51ECC1ED31EDA1EE2B1
:100A10001EE91EF01EF71EFE1E051F0D1F141F1BD4
:100A20001F221F291F301F381F3F1F461F4D1F55F4
:100A30001F5C1F631F6A1F721F791F801F871F8F14
:100A40001F961F9D1FA51FAC1FB31FBB1FC21FC931
:100A50001FD11FD81FDF1FE71FEE1FF51FFD1F044B
:100A6000200C2013201A2022202920312038204059
:100A70002047204F2056205D2065206C2074207B6D
:100A80002083208A2092209A20A120A920B020B87B
:100A900020BF20C720CE20D620DE20E520ED20F488
:100AA00020FC2004210B2113211B2122212A213289
:100AB0002139214121492150215821602167216F8D
:100AC0002177217F2186218E2196219E21A521AD8E
:100AD00021B521BD21C521CC21D421DC21E421EC8B
:100AE00021F321FB2103220B2213221B2223222B81
:100AF0002232223A2242222000400080008100B5AA
:100B000000C900000101016A019201C00100020256
:100B1000024002C002D40200032403760300043E14
:100B200004B6040005A805000800000F0005001425
:100B300000EFFFFEFFF4FF02001100ECFFFBFFF1EE
:100B4000FF00000F000500F9FF0A00FEFFF4FF029E
:100B5000001100ECFFFBFF0C000000000000000093
:100B600000C0FF000000000000000000000000C006
:100B7000FF0000000000000000C0FF0000000000B7
:100B80000000000000000000000000000000000065
:100B900000C0FF0000000000000000C0FF000000D7
:100BA000000000F4FFFF7FFF7FEFFFFEFFFF7F02EB
:100BB00000F6FFFF7FFF7FF1FF00000F00FF7FFFC8
:100BC0007FFF7FFEFFFF7F02001100FF7FFF7FFF9F
:100BD0007F00000F00FF7FFF7FEFFFFF7FF4FFFF2D
:100BE0007FFF7FECFFFF7FF1FF0000F4FFFF7FFF3F
:100BF0007FEFFFFF7FF4FF0200F6FFFF7FFF7FF133
:100C0000FF00000F00FF7FFF7FEFFFFF7FF4FF0279
:100C1000001100FF7FFF7FF1FF0000FF7F0500FF55
:100C20007FEFFFFEFFFF7F0200FF7F0700FF7FF1E6
:100C3000FF0000FF7F0500FF7F0A00FF7F0F00021B
:100C400000FF7F0700FF7F0C000000FF7FEAFFF935
:100C5000FFFF7FFEFFFF7F0200FF7FECFFFBFFFF38
:100C60007F0000FF7F05001400FF7FFEFFFF7F0273
:100C700000FF7F07001600FF7F0000FF7F0500F9DF
:100C8000FFFF7FFEFFFF7F0200F6FFFF7FFBFFFFFE
:100C90007F0000FF7F0500FF7FEFFFFEFFFF7F0269
:100CA00000FF7FECFFFBFFFF7F0000FF7F0500FFE1
:100CB0007FEFFFFEFFFF7F0200FF7F0700FBFF0CBF
:100CC000000000FF7F0500F9FFFF7FFEFFFF7F02AE
:100CD00000FF7FECFFFBFFF1FF0000F4FFFF7FF957
:100CE000FFFF7FFEFFFF7FFF7FFF7FECFFFBFFFF2C
:100CF0007F0000FF7F0500F9FFFF7FFEFFFF7F02FF
:100D000000FF7FFF7FFF7FF1FF0000FF7FFF7FFF7E
:100D10007FEFFFFEFFFF7F0200F6FFFF7FFBFFFF7D
:100D20007F0000FF7F0500FF7FFF7FFF7FF4FF0252
:100D300000FF7FECFFFBFFFF7F0000FF7F0500F956
:100D4000FFFF7FFEFFFF7F0200FF7F0700FBFFFF2B
:100D50007F0000FF7F0500FF7FEFFFFEFFFF7F02A8
:100D600000F6FFFF7FFF7FF1FF0000FF7F0500FF20
:100D70007F0A00FEFFFF7FFF7FF6FFFF7FFBFFFF85
:100D80007F0000F4FFFF7FFF7FFF7FFEFFFF7F02FA
:100D900000FF7FFF7FFBFFFF7F0000F4FFFF7FF975
:100DA000FFFF7FFF7FFF7F0200FF7FFF7FFBFFFFD3
:100DB0007F0000FF7FFF7FF9FFFF7FFEFFFF7F02C5
:100DC00000FF7FFF7FFBFFFF7F0000FF7FFF7FF9BA
:100DD000FFFF7FFEFFF4FFFF7FF6FFFF7FFF7FFF38
:100DE0007F0000FF7FFF7FF9FFEFFFFEFFFF7FFF28
:100DF0007FFF7FECFFFBFFFF7F55557777F5F5B55C
:100E0000B56F6F0909494949522549DBDBDF761186
:100E1000A919D5C16F01D10E012C016801E001D0E3
:100E200002C0037F007F0081FF81FF7F007F008180
:100E3000FF81FF7F007F0081FF81FF7F007F0081B6
:100E4000FF81FF7F0081FF7F0081FF7F0081FF7FA7
:100E50000081FF7F0081FF7F0081FF7F0081FF7F96
:100E60000081FFC1FFC1FF7F00000081FF00000083
:100E7000005800000000005800CEFFA8FF000058F6
:100E800000000013002C005D00FCFF2000CBFFA63B
:100E9000FF81FF750020009AFFCBFF6900CBFF5D4B
:100EA00000CBFF58009BFF6B00A1FF5800A8FF324A
:100EB00000DAFF4100A8FF6500A1FF650081FF3F48
:100EC00000E1FFF702F703F704F70A290B410B597A
:100ED0000B710B890BA10BB90BD10BE90B010C1991
:100EE0000C310C490C610C790C490C910CA90CC10A
:100EF0000CD90CF10C090D210D390D510D690D8125
:100F00000D990DB10DC90DE10D310CF90D170E2321
:100F10000E430E630E830EA30E18191B1C1D1F20FB
:100F2000212224252628292A2C2D2F30313334360E
:100F300037393A3C3D3F404243454648494B4C4E89
:100F4000505153545658595B5D5E606263656768E3
:100F50006A6C6E6F71737577787A7C7E8082838518
:100F600087898B8D8F91939597999A9C9EA0A2A427
:100F7000A7A9ABADAFB1B3B5B7B9BBBDC0C2C4C60D
:100F8000C8CACDCFD1D3D5D8DADCDEE1E3E5E8EAD3
:100F9000ECEEF1F3F5F8FAFDFF180202020202028C
:100FA0000202020202020202020202020202020221
:100FB0000202020202020202020202020202020211
:100FC0000202020202020202020202020202020201
:100FD0000202020202020202020280FFFFFFFFFF82
:100FE000FFFFFFFFFFFFFFFFFFFFFFFFFFFFFFFF11
:100FF000FFFFFFFFFFFFFFFFFFFFFFFFFFFFFFFF01
:10100000FFFFFFFFFFFFFFFFFFFFFFFFFFFFFFFFF0
:10101000FFFFFFFFFFFFFFFFFFFF0200060D131999
:101020001F262C32373D43484D52575C6064686C34
:101030006F7275787A7C7E7F808181828181807FEA
:101040007E7C7A7875726F6C6864605C57524D482C
:10105000433D37322C261F19130D0600FDF6F0EA2A
:10106000E4DDD7D1CCC6C0BBB6B1ACA7A39F9B97DC
:1010700094918E8B89878584838282828282838405
:101080008587898B8E9194979B9FA3A7ACB1B6BBA4
:10109000C0C6CCD1D7DDE4EAF0F6FD0080808080C8
:1010A00080808080B0B0B0B0B0B0B0B0DADADADA58
:1010B000DADADADAF5F5F5F5F5F5F5F5FFFFFFFF24
:1010C000FFFFFFFFF5F5F5F5F5F5F5F5DADADADA14
:1010D000DADADADAB0B0B0B0B0B0B0B08080808028
:1010E000808080804F4F4F4F4F4F4F4F25252525F4
:1010F000252525250A0A0A0A0A0A0A0A000000000C
:10110000000000000A0A0A0A0A0A0A0A25252525FB
:10111000252525254F4F4F4F4F4F4F4F807F868CB2
:1011200092989EA5AAB0B6BCC1C6CBD0D5DADEE2F5
:10113000E6EAEDF0F3F5F8FAFBFDFEFEFFFFFFFE39
:10114000FEFDFBFAF8F5F3F0EDEAE6E2DEDAD5D0E3
:10115000CBC6C1BCB6B0AAA59E98928C8680797386
:101160006D67615A554F49433E39342F2A25211D59
:101170001915120F0C0A07050402010100000001F5
:1011800001020405070A0C0F1215191D21252A2F2B
:1011900034393E43494F555A61676D73797F80807A
:1011A00080808081838487898D91959AA0A6ADB334
:1011B000BAC2C9D0D7DEE4EAEFF4F8FBFDFFFFFFC7
:1011C000FDFBF8F4EFEAE4DED7D0C9C2BAB3ADA6AE
:1011D000A09A95918D898784838180808080807F8B
:1011E0007F7F7F7E7C7B7876726E6A655F59524C1A
:1011F000453D362F28211B15100B07040200000067
:101200000204070B10151B21282F363D454C52595F
:101210005F656A6E7276787B7C7E7F7F7F7F808061
:10122000808080808080808181828486898D919673
:101230009CA3AAB2BBC4CCD5DEE6EDF3F8FCFEFF5E
:10124000FEFCF8F3EDE6DED5CCC4BBB2AAA39C96B7
:10125000918D898684828181808080808080808059
:101260007F7F7F7F7F7F7F7E7E7D7B7976726E69D9
:10127000635C554D443B332A2119120C07030100CE
:101280000103070C1219212A333B444D555C636955
:101290006E7276797B7D7E7E7F7F7F7F7F7F7F8092
:1012A0000004080C1014181C2024282D3135393D59
:1012B0004145494D5155595D6165696D7175797D3E
:1012C00082868A8E92969A9EA2A6AAAEB2B6BABE1E
:1012D000C2C6CACED2D7DBDFE3E7EBEFF3F7FBFF03
:1012E000FFFBF7F3EFEBE7E3DFDBD7D2CECAC6C2F3
:1012F000BEBAB6B2AEAAA6A29E9A96928E8A8682EE
:101300007D7975716D6965615D5955514D494541ED
:101310003D3935312D2824201C1814100C080400E8
:1013200000181A1D202225282A2D303336393C3F3B
:101330004245484B4E5155585B5F6266696D70740B
:10134000777B7F83868A8E92969A9EA2A6AAAEB259
:10135000B6BBBFC3C8CCD1D5DADEE3E7ECF1F5FA12
:10136000FF181A1D202225282A2D303336393C3FFC
:101370004245484B4E5155585B5F6266696D7074CB
:10138000777B7F83868A8E92969A9EA2A6AAAEB219
:10139000B6BBBFC3C8CCD1D5DADEE3E7ECF1F5FAD2
:1013A000FF180404040404040404040404040404EE
:1013B00004040404040404040404040404040404ED
:1013C000040481FFFFFFFFFFFFFFFFFFFFFFFFFFA1
:1013D000FFFFFFFFFFFFFFFFFFFFFFFFFFFFFFFF1D
:1013E000FFFF0404040404040404040404040404C7
:1013F00004040404040404040404040404040404AD
:10140000040481FFFFFFFFFFFFFFFFFFFFFFFFFF60
:10141000FFFFFFFFFFFFFFFFFFFFFFFFFFFFFFFFDC
:10142000FFFF04000D1A26323E49535D666D747A43
:101430007E81838483817E7A746D665D53493E32FA
:10144000261A0D00FAEEE1D5C9BEB4AAA19A938E70
:10145000898684848486898E939AA1AAB4BEC9D5CC
:10146000E1EEFA000D1A26323E49535D666D747A3C
:101470007E81838483817E7A746D665D53493E32BA
:10148000261A0D00FAEEE1D5C9BEB4AAA19A938E30
:10149000898684848486898E939AA1AAB4BEC9D58C
:1014A000E1EEFA0080808080B0B0B0B0DADADADA4B
:1014B000F5F5F5F5FFFFFFFFF5F5F5F5DADADADA20
:1014C000B0B0B0B0808080804F4F4F4F252525258C
:1014D0000A0A0A0A000000000A0A0A0A2525252528
:1014E0004F4F4F4F80808080B0B0B0B0DADADADA98
:1014F000F5F5F5F5FFFFFFFFF5F5F5F5DADADADAE0
:10150000B0B0B0B0808080804F4F4F4F252525254B
:101510000A0A0A0A000000000A0A0A0A25252525E7
:101520004F4F4F4F80808C98A5B0BCC6D0DAE2EA0E
:10153000F0F5FAFDFEFFFEFDFAF5F0EAE2DAD0C6BC
:10154000BCB0A5988C8073675A4F43392F251D1561
:101550000F0A050201000102050A0F151D252F398A
:10156000434F5A6773808C98A5B0BCC6D0DAE2EAC4
:10157000F0F5FAFDFEFFFEFDFAF5F0EAE2DAD0C67C
:10158000BCB0A5988C8073675A4F43392F251D1521
:101590000F0A050201000102050A0F151D252F394A
:1015A000434F5A67738080808083878D95A0ADBA42
:1015B000C9D7E4EFF8FDFFFDF8EFE4D7C9BAADA055
:1015C000958D87838080807F7F7C78726A5F5245AB
:1015D00036281B100702000207101B283645525FF1
:1015E0006A72787C7F7F80808083878D95A0ADBA7A
:1015F000C9D7E4EFF8FDFFFDF8EFE4D7C9BAADA015
:10160000958D87838080807F7F7C78726A5F52456A
:1016100036281B100702000207101B283645525FB0
:101620006A72787C7F7F80808080808182868D96C0
:10163000A3B2C4D5E6F3FCFFFCF3E6D5C4B2A3968F
:101640008D868281808080807F7F7F7E7D797269B8
:101650005C4D3B2A190C0300030C192A3B4D5C69B5
:1016600072797D7E7F7F7F808080808182868D966B
:10167000A3B2C4D5E6F3FCFFFCF3E6D5C4B2A3964F
:101680008D868281808080807F7F7F7E7D79726978
:101690005C4D3B2A190C0300030C192A3B4D5C6975
:1016A00072797D7E7F7F7F80000810182028313975
:1016B0004149515961697179828A929AA2AAB2BA52
:1016C000C2CAD2DBE3EBF3FBFFF7EFE7DFD7CEC60F
:1016D000BEB6AEA69E968E867D756D655D554D45F2
:1016E0003D352D241C140C04000810182028313915
:1016F0004149515961697179828A929AA2AAB2BA12
:10170000C2CAD2DBE3EBF3FBFFF7EFE7DFD7CEC6CE
:10171000BEB6AEA69E968E867D756D655D554D45B1
:101720003D352D241C140C04007D838A9198A0A6BD
:10173000AAADB3BBC1C7CED2D4D4D7DFE6E9E9EABC
:10174000ECF0F5F9F9F7F6F8F7F7F8FBFBF9F5F136
:10175000F2F3F6F5EFE5E1E2E2DDD6D0CDCAC4BEA4
:10176000B8B5B0A69D9897958D837C776F666263B8
:1017700060564B474540372C292A2A28231C16122D
:101780000D0A090A0A080704010001030301000306
:10179000080C0D0D0E1216191E23282C2D30373F64
:1017A000474E53595E656E74797D7B8795A2AEBBBB
:1017B000C7CFD8DFE9F0F6FAFBFAF8F5F4F2EDE47A
:1017C000DCD3CDC7C0B7ADA6A09A96949494949458
:1017D000959AA0AAB0B3B3B9C3CBCECFD2D5D8D83F
:1017E000D5D3D1CCC2B9B1ABA296877A6D5F52473F
:1017F0003F36291C15110D070000060D1215171D87
:101800002328303943494F575B5E6265696A6664D5
:101810006363605A544D48423B36312E29252225B8
:10182000272B30343C434E5A66707B7A8999A7B493
:10183000C3CFDBE4ECF4FAFEFEFBF8F3ECE1D6CA2E
:10184000BBAC9D8E7F706053463A312A27232224F9
:10185000293036414D58646F7D8B98A3ADB7C0C712
:10186000CDD1D2D1CDC9C3BAAFA39789796A5A4D28
:101870003E3024190E0603010100030B17212B37FC
:101880004755637382919EAAB6C3CAD0D6D9DBD717
:10189000D4D0CAC1B6ACA0928375675B50453B35C6
:1018A000302C2B2C2F353C4753606D7A7F838B96E1
:1018B0009FA5A8ADB2B5BABEBFB9B2AEAAA3978E66
:1018C000877C6F625749382B231A120B06060200D9
:1018D00001060D172029313B45515E6A747C828ACE
:1018E000939B9EA3A6A8A7A5A39D938A847F776CAC
:1018F000635C574E4745423F42474B4C515F6B74C8
:101900007D8A97A0A8B5C7D2DBE3ECF2F5F7F9FE24
:10191000FAF8F3ECE3DAD1C7BAADA1978C8279700B
:10192000665F5A595857585B60656E777F847C793B
:101930007D7E79706A6A686868655B514B4B463E8C
:101940003938362E29251C0E08060504020004032A
:1019500000000109141B1B1D21262E343D44454661
:1019600049545A5D626B7476797E817C787E878972
:101970008483898D8D8D9397989CA7AEACAEB9C4A6
:10198000C9CCD4DDDCD7DEF0F6F8F8FBFDFBF7F9C7
:10199000FFFFFDF8F2EBE6E3DDD5CCC9C7C0B9B671
:1019A000B2A59C9898958E8A878481848784857C4B
:1019B0007A87938C75685F5A5D666C6658514D41A5
:1019C000322F363B3B3B3B2D19100B0E171B2026AD
:1019D0001D0B0200122B3B362F29262B2D3841419F
:1019E0003F44515A585D636A68687378736F7887AB
:1019F000877C7C8795979AA0A09EA0B0BEBBC0D0E4
:101A0000DDDBD0CBD0C9C0CDEFFDFDF6F2EFEBE2D0
:101A1000E2EBE9EBE9E9E4DDD2C7B9B5BEC7C2B78D
:101A2000B0A5958E939E9E958A817C757E87857ADA
:101A30008591A5B6BDB6AEA2A0ABBBD0DFE2E1D822
:101A4000CCC6C7D1DCE7F0F5F0E9E1DCDDEBF7FF70
:101A5000FFF1DACBC7D5E7F3EEE1CEC1BBB6B8BA3A
:101A6000B8B8B6BABAB3ACA0968C8280807F7F7BC0
:101A7000786C605B5D6465625D534A424045474EE9
:101A8000534F422C190C0708182A36362C221B1BE0
:101A900018161613181E2C332F22160F182A3D4421
:101AA0003D31272731445862605A54565B65737A3A
:101AB0007C8997A5AFB4ADA4979297A2B2C2CBD0C0
:101AC000CFCED0D5DDE3E6E6E4DDD8D3D2D8E5F35A
:101AD000FDFFF8E9DCD3D4D8DAD5CFC6C1C2C5C87A
:101AE000CACCCECECCC8C0B4A5988C8383878F993E
:101AF0009D9D978C81766C62574C454243474E546E
:101B00005B5B554A3C2C2019191C1E201C150F0C20
:101B10000F12141715191B201E190E06030B1A2677
:101B2000303232333C47535E605C5551535A6470D7
:101B30007C7F909DA9ADA99D8C7A6F6C717E8D9AEA
:101B4000A7B3BCC8D2D8D9D3C5B6A69D989DAABA0A
:101B5000CCDAE4E3DBCDBEB0A69D98989CA7B3BFDA
:101B6000CAD4D9DFDFDAD5C7B7A592847F8491A61E
:101B7000BCD1DEDFD3BDA081624B3C39414F6071E7
:101B80007D84847F766C61584D44392F261D171251
:101B9000161D27313A3D3C362D2013060100051055
:101BA0001B27333F50606C7371685B514B4B546122
:101BB000717F84939DA7A79B89755E514C5159668F
:101BC000738393A1B0C0C6C1B4A28C766B666E7EDF
:101BD0008DA5B5C2C6C0B4A18D7F7570737F91A667
:101BE000BBC6D3DADEE2DDD3C5AE9C8A7B777E8FBF
:101BF000ABC8E6F9FFF5DDB98F694D3D3E4A607B24
:101C0000919FA5A7A19A968D857764544534292480
:101C10001F202635465053554A35221B2122130FCB
:101C20001C2A3A465B778D92948F7F6C5E5856598A
:101C30006475848F938D918D6E57402C272C3A3884
:101C4000323A3C464F556A706155553C211D111B77
:101C5000272342575D6459574D3C4D5551535B6A9C
:101C60008BA6A0ACB0A6B4B09E977C726C64615D8C
:101C7000708797B4C5CFCFC7B9A08D7E747C83978A
:101C8000B9CFCFCDDCD6CFDCCFCDBD918B87746EF5
:101C90006A5B443C5168685D726C49365BBDD887AD
:101CA0005D749BB6AABBECFFE8E2E6D3BFB0A8A088
:101CB00085818D8F878B78747965564F5652536E18
:101CC0005F4A5648444C434C4F473F4548343138AF
:101CD00031292C3529403D2140392C4F5D5A525B2A
:101CE0005E617C6E657062696D5F665A576A666494
:101CF00068696D6E7982808E9B9EA4AFB1B1BBB8CE
:101D0000BFCDD3CBBBD2D1BFDDD5CBCEACA9ACA997
:101D1000A49B957B68707B7368797B65628AE5FF1D
:101D2000BB95A4BFCFBBBEDADEC6BEC8C2B5BEB8C7
:101D3000A5999288876A997C71999E797FBA907AE1
:101D4000C8A776BD9E86B79C9FA4AF9883B5826ACC
:101D5000AC7F4E9888299F831293662B70676139F8
:101D6000696D257A6E32695E5060546D604889777E
:101D70005B98898999A7BEA2C5DFC5D6E7EADFEFE0
:101D8000EDF0F8FBF6C5F9F9ACFFEFB2DCC39C8DC2
:101D9000A1835D675026252B1F19222319162B5866
:101DA00066423136454D4244525448445A543F7776
:101DB00070386E80546A6197866FABBF8FA0F0B1A8
:101DC00091F3C697F3C9ACF3D3C9D7EAC6A6F3BC5F
:101DD00094F2B972DDC342D0B42FBF8A4B877176BB
:101DE0003E75821E75792E66664E635472705596E6
:101DF0008167AB9993B2B4CDB2CEE8C4D8F1E8DD37
:101E0000F1E8E8EBECE8B1E8EF8DE8DB8CC5B68EE5
:101E10007289723A4B45161109060A000A03060A2E
:101E2000030A0A0A090A0A0A0A0A0A010A20140A03
:101E30004E3F0A5D7144618570B94DBDDD5FA3FC05
:101E4000735FFD8383FF7F6FFDCA80ECE57D6AFFD2
:101E5000DA5DFDD944E6DF3F82C679777695634344
:101E6000AC4F44B86744B07C3A636A83304D879581
:101E7000596299678357C36D7DCA7D8F768DEC8FCC
:101E8000B2E88D8FACB58D6A8DCA548F9D548A6F20
:101E9000B06352A9342C792942013662006C233494
:101EA0006A206A676A606A6C6A6C6A6C0F6C791A7D
:101EB0006A83326C9F548F85B836FF21D2FD1CA3F4
:101EC000FF1A18FD1E66FF1117FDB413FFD0101185
:101ED000FFFD10FDFF07E5FD420BD7E80C59FF2F72
:101EE00005F86D04FFD905FDF3046397B4041CAC39
:101EF000EF0438E2056105D70504E50405041CD5A7
:101F0000056ACB0405475C0405048B04053D0532D6
:101F100005DE5204F83605C950940589EA10FF5CC5
:101F200086FD57FDF6FDE5FCFFFDFFFDFF2FFFFDE4
:101F300031FDD025FFFD2DFDB87A85919CA7B1BC60
:101F4000C5CDD5DBE0E4E6E5E6E5E1DFDBD8D1CBE6
:101F5000C5BDB7B1ACAAA8A8A8A8A9A9AAAAAAAAA7
:101F6000AAADAFB2B4B6B9BCBFC1C5C7C8C8C7C7B0
:101F7000C4C2BCB6ADA49B8E8274685C4E41362B45
:101F800021180F080502000002070D131B242C3630
:101F90003D454E545C60676C7073737473706C690C
:101FA000686562605F5C5955514D4945413E3B381B
:101FB000383B3E4348515A64707A7B88929AA6B265
:101FC000C3CFD8E1E6EAEDF0F0F0E8DFD8D2D2CE28
:101FD000C8C1B6B0ADAFB2B5B7B7B9B9BABBB9B58C
:101FE000B4B5BABCC3CAD2D8DADCDCDAD9D7D5D218
:101FF000D0CDC9BFB5A89F9C958D7C6B5844332824
:10200000221D170D040001050D13181C1D21283277
:102010003E44494F5358585A5D6162636361595059
:10202000494846494B4E494138333233373A3A37BB
:1020300032303132353844505F707B7D899195A0C4
:10204000B0C5D5DEE6E9ECEFF2F2F0E1D1C3BCBFFA
:10205000BFBCB3A79EA3ADB9C3C8C8C9CBCCCCC8BD
:10206000C0BCBFC5C9D4E3F0FBFFFCF8F2E9E4DE75
:10207000D8D5D1C9BCAD9D979A9E9B8B71553C28F4
:102080001F1F2221160C070D1B2D393F3C363439FA
:1020900043515555575755514E4C4E4E4E4E483C58
:1020A0002D211F212A343A33251610131C2B373CBF
:1020B0003A332D2B2A282A36485C717D81898B89F9
:1020C000909EB3C2CBCFCFCDD0D4D4D1BFAB9C9256
:1020D000999E9D968B848FA0AFBEC5C4C7C7CBC940
:1020E000C3B8B4B6BEC2CCDEF1FCFFFAF3E7DCD471
:1020F000CDC7C0BCB6A9968985919EA2957B5F4746
:1021000034303741473F34333C5065747872665DF4
:102110005E6770736F6A655F584D48474547443F37
:1021200032211110142230383322110D1222374A75
:1021300052514A413C3836343D5065768184888618
:10214000808491A5B3BABBB9B6B7BBBBB7A38D7B2F
:10215000737B84867F766F7E94A7BAC2C1C3C4C8DE
:10216000C5BEB3ADAFB6BBC6DBEFFCFFF7EEE0D04C
:10217000C8BEB7B1ADA598867979899EA79E8467B8
:102180005040404B5B645F5554607891A3A69B8A96
:102190007E7B828A8A827971675C4F464341413EE9
:1021A000372A1707060C1D2F3933200E0A13264134
:1021B0005963635C524B45403C43556A7A84858839
:1021C00082797A8699A6ABABA7A3A3A6A7A38C76A0
:1021D000635B6570736E6560718AA0B4BEBDC0C07C
:1021E000C4C2BAACA6A9B0B4C1D7ECF9FBF2E8D727
:1021F000C6BCB2AAA3A0988B796D6F839DAAA38A4F
:102200006E584A4C5C707C78706F7D97B3C6C8BBC3
:10221000A79792989E9C91857B6E615046423E3F67
:102220003B3425120100071B2F3A34210E0B152BCE
:102230004A6571726B60585149444A5B6F7E85876D
:10224000877F797F8D9DAEBBC1BEB9C0C7C7C0A215
:102250008972646E777B776D66738DA1AFB5B4B705
:10226000B7BDC1BEB2A8A4A9AAB7CCE1EFF0E4DA29
:10227000CBBEB8B0A9A4A29A8A766866738A948CF9
:1022800070523C2C2F425B6D706C70839FBCCECE25
:10229000C1AB988F939A9687796C5F54453C3938D7
:1022A0003A373022120100081C303C372514132025
:1022B00039597581837E71685E544C51637381878F
:1022C00087847A788798A3B9D2E4E3DCEDFCFAEB53
:1022D000C5A88A757F8589877A707A8FA0A5A8A3FB
:1022E000A5A7B1C0C5B9A8999999A3B9CBDAD9CA9C
:1022F000C1B6B1B1ACA5A2A39D8A715F575C6971EB
:10230000644426110002193A556166718CAAC8D935
:10231000D7CAB29B8C8C8F89756253483F322D2D62
:102320003035322B211405030C20343F3C2F21255E
:102330003452738F9DA09B8E8475675C61707B8522
:1023400087867D787B8E989CADC9DFDFDCF1FFFC52
:10235000EECEB9A28D919192948B83828D928A87D1
:102360008383848DA2AEA796847F7B808D959C9B72
:102370008E8B868B929592929692847264564F4F72
:102380004F442E1D0F040716344E5F6A7B90A6B78C
:10239000BDBBB2A391827D7F7867584D4643403FD5
:1023A000444B514D4847443F3D404D585F5D5B595C
:1023B0005D6B8096A6ADB1B1A99F91867D7D868427
:1023C0008986847A767D929995A3C0DADBD9F0FF6D
:1023D000FCECD2C4B09C9D9A9A9D968F8889877791
:1023E000716B6A6C748D9D9B8B746B66666C6D7182
:1023F0006D636465727E8484868C8C8173685849B1
:102400003E3A302118130C0D1831495D6D8093A1AF
:10241000A9AAA6A2998B7B74726B5D504846484A64
:102420004E555E64625F64686866686D7276777B3D
:10243000808792A1ADB4B8BDBEB9B2A59C94939467
:102440008C89848378747E9499909CBAD5D8D6EF81
:10245000FFFBECD5CBBBA7A69F9FA49F988C888041
:1024600069605B595B637D919282695E57555551F6
:10247000524E45484E606F77797E85867E746B5AE2
:1024800044322A2117151410111A2F465D708495B5
:102490009D9F9C97969085766D6A63564C45464CF9
:1024A0005359616C727070788185848485858689C2
:1024B000929CA4ADB8BEBFC0C4C8C5C0B4ACA4A1F2
:1024C0009F918B838775717D969B8F9AB9D5D6D254
:1024D000EDFFFAE6CBC3B39B9B97969E9A968E8FA1
:1024E0008E776C6A6A6E7895ACAA997F6A59545354
:1024F0004B444038353848565D5B626D727272717C
:10250000655240362E262627262A303D4E5E6E80A6
:1025100095A1A49F9B978A7B6C625E594B3F343593
:102520003C41454E5B615B595D636A6D6D707278CD
:102530007B8695A6B8CBD7DCDCDDDEDAD6CDC7C08E
:10254000BEBBA899878D746F7D95998990ACC5C3E2
:10255000BED7E6DFCAAEA99B828484848E8E8E8E1F
:1025600097A59084898E949EBCD3CEBEA582625AD4
:10257000584A37332C231E2831332E374653617285
:102580007F7D72645A535354585D64646262686D0F
:10259000798EA2A5A09D957D6A5B54514C4133254F
:1025A000252C302E3545483E3533353F464A4C5470
:1025B0005F626D84A4C1DFF4FFFBF6F4EFEDEAEC9B
:1025C000E6E6E3C8AC8D9175717F8E8F80808F9D1C
:1025D000948FA0A8A28F7A7A7361676C6B757A82E8
:1025E0008A9BB4AA9EACB4B9C1D7E9DED5CAA0789B
:1025F0006E6B5A3F3C3A291F1C1F1A1219293A5375
:10260000758F9BA09B8F8F969DA2ADB6AF9B877A4F
:10261000737584969B98968C6E5D55504E4E483CD3
:102620002E2D34322B303A3C2E2317151F2B2E32F1
:102630003F4D4E577096B9D7F3FFFCF0E9E3E4ED58
:10264000F3F5F5F2D9B7919277747F868577717437
:10265000776D686E706A5C4F5454484F5858616A81
:1026600076869BBFBDB4C6D2D7DDEAF5E7E6E3B612
:102670008B7F7C6A494849362519150A0006162AB7
:102680004C799DB3C3C6BDC0CFD7DDEDF6EAC8A473
:102690008B7770798C918E8E836254515151525246
:1026A000493D3A3F3A2E303736271807000A181EA0
:1026B0001F303F40455E88ADCCEAF9F3E3DAD4D869
:1026C000E7F5F9FCF9E1BC928E7A797F807E756D31
:1026D00068635A5655534F4741484C474D57565DCE
:1026E00065718295B4B9B4C4CED2D5D9DDD2D4D86F
:1026F000B6938A87795D5D614F40322A20161A268B
:1027000036557D9DB4C7CEC9CEDCE3E9F7FFF2D0E4
:10271000AD917D7175838684867D63595B5D5D6156
:10272000645F5654565045444845392D1D141C28A5
:102730002C2E3B48484A5C7D9AB2C9D5D0C2B9B567
:10274000BAC9D6DCDFDDCDAF8E8473655D57585DC9
:10275000646D7172706D6765636467707985909957
:10276000A0A19D9488796A615E616D7A8B9BAAB500
:10277000BCC1C3C4C3C1C0C0C3C5C9CCC9C3B7A64B
:10278000947F6C5A4B413B3A3B3E43454849484550
:1027900044464E5C6F869FB6CBDBE9F1F3EFE6D99A
:1027A000C7B39E8C7B6F635547392C1E140A0300F8
:1027B000020A1626394D60717D878B8E8F959EA9F2
:1027C000B4BDC5C8C7C1B5A5948476747174767458
:1027D00078828B939E9A978E827D8082909EA5AC04
:1027E000AFACA8A395866F503B2F2631404E617148
:1027F0007B8B9CACC2D2D7DEE2E3EAF6FDFFFAE7C0
:10280000D0B89C8B79685F53474545454B4C453D57
:102810002F211F242D4055667B8EA1BFD5E3EFEFFE
:10282000E7DBCBB8ADA09287725C5042342D1F1508
:102830000E0A101F32455A687176797B7F79797953
:10284000787980879099958E877976657F92A6B200
:10285000ADADB2B5C0D1D1CDC7B2ADB0ADB9C8C0C4
:10286000B9B09F9895867B6C482D1804040C0C1306
:102870001B1A2D4A638CADBCCAD1D1DDECF3FDFF30
:10288000EADBCCB9B9B5ABA99D87827D767A786849
:102890005C462B241F181F1F18181D2446657F9D9A
:1028A000ADB0B9BCBCC7C5C0BEB09C9A9390958C66
:1028B000807A716A787F878E897A6F6562675B4FED
:1028C000412718181824373C434D526566859CB340
:1028D000C1BCB9BBB9C0CFCFCECBBAB6B9B5BBC3FB
:1028E000B6AB9F8B84837B7871584535211A1B12B8
:1028F00011100A172E44698694A2A8A6AFBBC0CABD
:10290000CEC3BEB9B3BCC2C1C5BDAAA59F9598959B
:10291000877C6A524B4336322713080100172F4435
:1029200062747E8E9BA6B8C0C1C6C0B5BBBCC0C910
:10293000C6C0BBB2A9AEADAAA69782736560625647
:1029400049381C090400091A222E404C666B8FAED0
:10295000C9D9D6D4D5D4D8E0DEDAD8CFCFD3D1D424
:10296000D6C4AF9B857D7D7C8184796E614D423973
:10297000281C100309192B475B646B6F6F778082EB
:10298000898A8281878FA8BBC6D0CABBB3A697911C
:102990008C837F776E717473746C594C4444576C9C
:1029A0007F95A3A9B4B9BCC3BEB3A7968482818422
:1029B0008E909398979090897F7464544C4B546098
:1029C0005E56462B14080004111926394B6B719979
:1029D000BFDCECECEBECEBECECE5E2E1DFE3E9EAAD
:1029E000EAE4CEB1967F74767D8B999C9A90807044
:1029F0005E452F1703000B172732323133363E4224
:102A00004242403E42506A8FB1C8D4D4CABDAB9551
:102A100089827E81858B9AAAB4BCB5A4968E8F9E3E
:102A2000AEBCCAD0D4D6D5D1CABAA0846750474468
:102A3000464E5763717A7671615140312626334A8A
:102A4000606965573F261407070E1524374F7178C4
:102A5000A0CAE8F8FAFAFAFAF8F0E8E3E3E9F1F7DD
:102A6000FAF7ECD3B090796E717E93AABAC1BCAF7D
:102A70009B816344240B00030A0F0F090101060C1C
:102A80000C090500020A214778A4C4D5D8D3C4ADE7
:102A90009480787A8493A6BED8EEFAF7E9DBD2D494
:102AA000DDE8F2F6F7F7F3EADFCCB18D633E2313EE
:102AB0000E0F1624384E5E5E543F2A14050109227B
:102AC000446273766B563D251611121927395478D6
:102AD0007DA6CADBDFD6CECACACDCDCDCCCACAC987
:102AE000C9CBCDCEC5B19A84746F727F909FA6A5D5
:102AF0009C8B755A402819151F2B3231291C15142F
:102B00001618191B1D222A3A537391ACBFCBCEC79E
:102B1000B59F8C817F8490A4BDDAF3FFFBECDBCE04
:102B2000CBCFD7DFE4E6E7E3DACEBBA58B705B4D16
:102B3000443F3C3B3F48535A595245382C232022AE
:102B400031485E6E747164534030241B1821345434
:102B50007D83ABC6CCC2AF9F96979FA8AEB2AFA8FD
:102B60009C9697A1ACB3B0A28F7B6D676B75828A80
:102B70008C877B68533E2F292F3F4E58574B3B2D58
:102B80002726282D343D464E56606D7D91A8BBC743
:102B9000C6BBAA978B83848DA1BBD9F3FFFCECD76E
:102BA000C7BFBFC2C8CED3D4D1C7B9A896887E79D3
:102BB0007877746D655D59585754504B4947454176
:102BC0003F434E5B697376736C5F4D3A271A1D3134
:102BD000568388AFC3BCA688706465718290989351
:102BE00086726666748BA2AFAA9A816B5B575B662E
:102BF0006E74736B5C4C3D363A485E727E7C6E59E7
:102C000045393437404D5D6971726D686A7890ABB3
:102C1000BFC6C1B3A39488848A9DB8D8F3FFFBEAEA
:102C2000D4C0B3AEAEB2B9BFC1BEB4A59589868BD0
:102C300097A3A9A79C8C7A6B5F555150535A626633
:102C4000635B55545964717C82837C6A50331D1ACE
:102C50002F588885B0C6C6B9A18B81878E959D9E59
:102C600090775D5253607892A29F978B7E767A859B
:102C7000949DA3A29278614F433D42525B5D584FB1
:102C80003E2C272F3D4B5C728388888787858B9AE3
:102C9000A8AFABA18E7A6D66656A7F9FC2DDEFF942
:102CA000F3E5DBD9D7D0CED2D4CEC5B9A68D787214
:102CB000767E8891948E88817A716A6F767A83891C
:102CC000887A695B4E45464C5050504A36200C007D
:102CD000031B4C8580A3B4BDC0B3A7A5ADAEA7A20E
:102CE0009D88694D474851627985898B929799A54E
:102CF000B8C6CDD2D0BD9E8576675650504B3F3971
:102D00003833282C435B697B92A0A0A0A5A9A49F7F
:102D10009D988B7C6D5C4941434748587692A4B995
:102D2000D0D8DBDFEBEEE2D6D6D3C6B8AC9A7E6560
:102D30005C5D60646D767A808B8F8B8B99A7ADB369
:102D4000B8AF97806D563D32312922201B0F02000B
:102D5000060F234D807C929DABB9BAB7BBC5C0AD01
:102D6000A1967F604A484A4D57666F758195A5B117
:102D7000C3D7E2E7EAE8D5B6A09587706157463237
:102D80002B3135323D5C778493A6B3AFAEB6BEB778
:102D9000A99B876E58493A2B2932383742586972B5
:102DA00085A2B6C4D3E9EEE0D0CCC6B3A49B8D73A4
:102DB0005B52514D4C55606A7A909C9EA3B6C8CD2B
:102DC000D2D3C7AA937F63432F26180C0A080100A9
:102DD0000B1D2937577C7091B0ADA2A0939DC8D030
:102DE000C4BC966A5647557779767966607F99B400
:102DF000CCC7BCBBAFB7D4D0BBAC866352474E5E2A
:102E00004E3D3A231C3D6692B0ADA7A69296BAC934
:102E1000C9BD947160515C6E60554E31273F5A7B3D
:102E2000948D8E938BA2D2E0DECEA89182788FA271
:102E30008F7A6748435564869B8F8E887488B5CE99
:102E4000E0E3C3A88F7A86896C563B0D000B162EE3
:102E5000362B2A1A154470648CBDA8817A6475BF1C
:102E6000D6D2D09256504C6CACAE9A8F5F4F7B9AB4
:102E7000BDE0BF94846672AEBDB7B3743D38304CCC
:102E800081755E4F1F124878ADDAC4A08F6B78B49D
:102E9000C9D0C98958575277AFA38E773521486377
:102EA00093B89475654565AAC1CEBF795149467EF0
:102EB000B6ADA1844643657AB3D0A68B704669ACA3
:102EC000C9E9E5A47F6C5F8DB69F895D13061D3748
:102ED00070825E4917003A645E86C09D655C41550C
:102EE000AFCED3D68C4A535982D3D4B6A15F467A9B
:102EF00096BBE2B06E542C3A87A4ABB066272C2A5E
:102F0000529E997E68281A5987BEF2CD967A4E5EF7
:102F1000A7BECBC97E4A545990DED7BD9A442B57E1
:102F20006FA3CF9761431434829CB3A9512120240D
:102F300070BEC0BC9C4E4B788ED0F1B3855D2750DF
:102F40009CB9DFD9865B524C91D3C6B480281E3D14
:102F50005FAAC28F6A26003A5E909CA5AEBAC5CD24
:102F6000D3DADEE0E2DFD8D2C9BCAD9C8A75645208
:102F70003F2B1F160B03000203080F161C262F38C9
:102F8000414C545B61676A6C6C6C6C6C6B6A6A6B0D
:102F90006C6F7174787C7E8285898C9193969A9CF3
:102FA0009E9FA1A2A19F9F9E9D9FA1A2A6ABB1B7EC
:102FB000C1CAD2D8E0E7ECF0F3F4F2EFEBE0D2C410
:102FC000B6A38C7B695844372A201A1715171B2281
:102FD00029323B4552606A738090797F848991954C
:102FE0009AA0A5ABAFB1B5BAC0C2C6CBCFD4D8DB1F
:102FF000DCDAD6CBB5A08D72503927150800031046
:103000001C293C556B7A8795A0A3A3A2A09E9B97F1
:10301000959794959894908E887E736961564D48E3
:1030200047494C505B69747C878E9497938E8A8451
:103030007A726964615E595C606061646568696741
:10304000696B6F72747980878B91949A9B99959232
:103050008D88807A77747171737579BACDD9E7F6F6
:10306000FAFAFFFFF5EAE4DACBBDB3A6998F877BC6
:10307000736E68605956524D494646474A4D5159FC
:10308000616A747B848E959A9B9FA09E9B9A969171
:103090008F8B858383827F80848586898C8E8F91B8
:1030A00093929193918F8E8E8D8988878583827F6D
:1030B0007B7975706A65605A575453525152545512
:1030C00056575859595957565452504F4E4C4B48D1
:1030D0004848464C565C63748895A5BAACCDDEF37F
:1030E000FBDEBFAC8759433A2F2A38464C5C6A73E3
:1030F00077818683868C8A868381786F686258564A
:10310000595D64707C848E9596928D867B736F6A10
:10311000696D73777D8688898A8984817E7B7778DB
:103120007B7C81898F929698948F898176716E6D60
:103130006F7A848E9AA5A8A8A8A399928A81787894
:103140007774757B807E868F959CACB8BBC6CDC1ED
:10315000AEA186573629100015344B74ACBDD2DDB4
:10316000E9F7FFFBF3ECE2CFBAA5948471615955FE
:10317000514C4D55595C60686D71777D828991988D
:103180009EA5ADB2B3B3B2AFA89D91867C6E6058D8
:10319000554F4C4D53585F66707A828A929AA0A51B
:1031A000A9ADB1B2B2B1AEAAA39A93897D726B6395
:1031B0005D5855555556585C6063676A6D707173FC
:1031C000737372706E6A67635E5955524F4A4A4B09
:1031D00048484C4F4F50586067778792A6BD878FFD
:1031E00095969594959CA0A2A9ABA9A4A2A1A4ABE5
:1031F000AEB3BCBFBEBDBDC0C0C6CECFC6A6856582
:103200002D000A2223376B8E8F8F999EA2A9B5C2FB
:10321000C0B19E7B4E363227223C5D686E79848A2F
:10322000919CACB9BFBCAC8F74634F393C4D5455C5
:103230005B6464636874829198959188745C525061
:103240004B4E53565C5F5D616C787F858D8D877FBB
:103250007673737273757776716B6D73797F878F01
:103260008E949DA2A9B2BBC3C7D5E2E2E4EEEEEA1A
:10327000E5F6E5CCDAD4BFB7B09890817A68594DBD
:103280003F3E3B2121291E16252525293445464B45
:103290005E6F7480949FA5B0C2C9C7D0DCE0DBD656
:1032A000DEDCCBC8CFB5A6A5978B7A6C5F544739C7
:1032B0002C2B220D2115000D1C151320242A374616
:1032C0004E535C6870757B847E89928A8C8E8B905D
:1032D00089898B7C88837C837A7B817B8380818FC7
:1032E000909FA3A7B7C0BECDE1CFBBD9EAC6BBD0E4
:1032F000BE9EA7B1916F707A634042502F132C335A
:103300000C001D20101A1D2333313B4B505A656BA6
:10331000707579818989838B908C8A8B8A8588895D
:10332000817E82817D7E7E7C7C888A838A929A9E41
:10333000A6ACB1BEC2CADADADDE7E3EAE5D5E7F268
:10334000CDB8CFCFA497A68E6C6875663F33494041
:1033500021273B20123843282E495152626E727C3D
:1033600090747A797B7F7D777270727374787C81C8
:103370008183878A8D8C8A9091949A9EA5AEB7B5E9
:10338000B6C6C2C6CFC9CDC5BBBDBEBDBABEC0BD27
:10339000A579676435002567645473989B9DB1C116
:1033A000BDA17F63565C51343551544C6A94A2A23E
:1033B000A9AAA39E907868615444435561637189BA
:1033C000959CA5A3998E7E6A5A4C373642444C6030
:1033D0006B7883868A897C716962554F50565D642B
:1033E0006A74BECBD5F0FFE0B195815E3E394353A0
:1033F0006D8B9DA7B9C4B8A39C9E9A8E85878C823D
:103400006D5F5F5D5658697D91A5B2B2B1AD9A7C92
:10341000685F574C4E5C6C777F888E92908D8B8D59
:103420008E8E8D8B8B8A847A797C7A79828C8D8F43
:10343000999C938B89847871757676787D807F7E70
:103440007C7974706D6B6C6D6C6C70716D6A6C6A8C
:103450006362666662626565605C59595855545A84
:103460006F99BEBADCBA8AA5EAFFE6DAD5B4969EB1
:103470009F81717D72452944738A7E6A697E9CB4FE
:10348000C0BDB0AAAFA99797A89F7150525F64675B
:10349000645143516B787C8590908A8C9BAAAC9E3A
:1034A0008D807A7D84806E60606362677686979A8D
:1034B0008C8DA5C0C1AC98949697948579757066EB
:1034C000636B7877685D626C77797269696F757321
:1034D000716F695C55595A544E463F3E4245423ED3
:1034E00041557CBACADD9B82CBFFDDBACFEBDFC58D
:1034F000C9DED3A08AADC09160667C7964524E5714
:103500005C575A66645B67848F837F91ACB6A99DD4
:10351000A6B2B0A7A59C8E898E8C7C675F676F630F
:103520005250596A7C77626F9EAE9E9CADB8C0C8FF
:10353000BFB3B4BBB7AA9A89878A7E615255564BEE
:103540003C31313B3B3333343B4B4F424357635E5B
:1035500058565B676758525D65554A545B5A6076AA
:103560008C816379CAB6A8768AD5DDC0B7E0E8DB7E
:10357000DDF5FAE6CFD5F8FFCBA6C4DFBD9CA3A549
:103580008978868C6F52525E65553E384749454B67
:103590004C3B3E58685A515D6B6F79827B768293C3
:1035A0009D9B8F8FA1B9B8A59DB7C8BBB4BDBAB854
:1035B000C3C7BAAFA9B0B0A6958B8386826C5A54A4
:1035C000534D47392E2B31312D2327292F32362CBD
:1035D0003540403F504045475A4A564C494E687026
:1035E00068686D6884B694A1B3D3D7CFECFFEAE3E3
:1035F000EEEAC9B9CFA86B828D4E36422E29271824
:103600001E1F273542504836717D2E4A9E5C4D85DF
:103610006D70777B8975719192738097888290879E
:10362000878E838A877489877380787681757C8595
:10363000737B95806F8B9C838496919F8A9FC976BC
:1036400091E5A282C0CCB3B9CAD3DCD9DAD2BEBE6E
:10365000A9A3A3634E73531A242E0E02141B0C123B
:1036600038433C59778194C0BE96C0FBD1BEEAFF77
:10367000EBEFFAF2EFF1EBECE8C8BED7C9A397A7DE
:10368000927382865B476361413E4236343C3C37ED
:1036900033313F534C3B4F645F6179776B7F9C982C
:1036A0008E98A3A6B2BBBAB6B1C4D5BFB7D6D0BDAB
:1036B000CECEB5B5C0B7A49C9E998A827D6A5D5F67
:1036C0005E493B3F3D3233332823312C32291D37AD
:1036D0002B332D3C2C3A473F354A41484E435165E8
:1036E0006F625B81A48684C0D3EECA8498F3FFA185
:1036F0005B637C776B6F6D62668BB1C5C2A994A664
:10370000CBC0865A5B6B675D5F605C6988A2A99FCE
:1037100091909FA896756062666361615C5C6D863E
:103720009697918F96A1A2937E727170727D7A6D39
:10373000819D9C9FA99F9DA095887D6E6F76726BE1
:1037400070787F868786837B747472665C5A626841
:1037500069646871746D6C6E6864615E5F5C545717
:103760005D5C5957575F78A7D30000000000000048
:103770000002030302020E1E0C00000004040E11DE
:103780001F040E1504040404000004040404150EB0
:1037900004000000081502000008140915030511B3
:1037A0000E0E111F111715150070726D00726E67E5
:1037B000006F700074756E0070727400706F7274B8
:1037C0006100706172616D657465720072616E672F
:1037D00065006F70657261746F7200646574756EF8
:1037E00065006F73632062616C00737562206F7394
:1037F000632E007061747465726E0067726F6F760D
:1038000065006F7363696C6C61746F722031006F57
:103810007363696C6C61746F7220320061727065E1
:103820006767696F00706572666F726D616E636560
:103830000077743100777432007774330077743412
:10384000007774350077746600312B3200313E32D8
:1038500000312A3200315E32006375740076636194
:1038600000707731007077320005310005320005B5
:10387000006D6978006E6F69007375620072657320
:10388000006375746F6666007663610070776D31F2
:103890000070776D32006F736331006F73633200B5
:1038A0006F7363312B32006D6978006E6F697365D9
:1038B000007375626F7363007265736F0061746B80
:1038C000007776310072743100777632007274328C
:1038D000007372630064737400616D740063686EDA
:1038E0000062706D007377670073686170650065D2
:1038F0006E76317E766366006C666F327E766366C6
:10390000007265736F6E616E636500656E76656CDF
:103910006F7065203100656E76656C6F7065203262
:103920000073657175656E636572006174746163BF
:103930006B006465636179007375737461696E000F
:1039400072656C65617365006C666F3120776176B6
:1039500065006C666F312072617465006C666F3251
:103960002077617665006C666F3220726174650045
:103970006D6F642E00736F75726365006465737498
:103980002E00616D6F756E74006F637461766500F3
:1039900072616761006D696469206368616E0074BB
:1039A000656D706F006D697865720066696C74652D
:1039B00072006C666F73006D6F64756C6174696F13
:1039C0006E006B6579626F617264006F6666006F8E
:1039D0006E007472690073717200732668000300D0
:1039E000736571006C6631006C663200736571003E
:1039F0006172700077686C00626E64006F667300BD
:103A0000637631006376320063763300726E640051
:103A1000656E3100656E320076656C006E6F740005
:103A2000676174006C666F31006C666F320073748E
:103A30007073657100617270006D776865656C0008
:103A400062656E646572006F6666736574006376A6
:103A50003100637632006376330072616E646F6D9D
:103A600000656E763100656E76320076656C6F00AB
:103A70006E6F7465006761746500323730003330F3
:103A800030003336300034383000373230003936C9
:103A900030007374617274006C656E6774680074D2
:103AA0006F7563682061206B6E6F6220746F0061B8
:103AB000737369676E20706172616D657465720001
:103AC000726561647900666F72206F73207570642F
:103AD0006174650070617463682062616E6B00736D
:103AE0007465702073657175656E636572006C6FC7
:103AF0006164002D2D2D2D0073617665006578744D
:103B000065726E00783220657874002F32206578F7
:103B100074002F3420657874002F38206578740085
:103B20000607776176652020206D757461626C658B
:103B30000076302E3120696E737472756D656E7407
:103B40007300657175616C006A75737400707974C7
:103B500068616700312F3420656200312F342065A1
:103B600000312F342065610062686169726100670D
:103B7000756E616B72006D6172776100736872655A
:103B8000650070757276690062696C6177610079B1
:103B9000616D616E006B616669006268696D70617C
:103BA00000646172626172006261676573680072CD
:103BB0006167657368006B68616D616A006D692794
:103BC0006D616C00706172616D650072616E676538
:103BD000730067616E676573006B616D6573680084
:103BE00070616C6173006E6174626861006D2E6B50
:103BF00061756E0062616972616700622E746F6444
:103C000069006368616E6472006B61757368690056
:103C10006A6F6765736800726173696100630000B1
:103C2000001800F4000C20080001640014000000DB
:103C30003C2814503C2800006003000400000500EC
:103C40000002000003000107000E003A0C013F0DC6
:103C500001100506200006100702000803000900F5
:103C6000000A0000780000000000FFFFCCCC4444B4
:103C7000000000016E657720202020201000060340
:103C80000C183000681FBB20182B41319F381124BD
:103C90001FBECFEFD8E0DEBFCDBF11E0A0E0B1E0A6
:103CA000EEEEF5E702C005900D92AA39B107D9F7FB
:103CB00015E0AAE9B1E001C01D92A833B107E1F710
:103CC0001CE3CEE8DCE304C02297FE010E94B63A72
:103CD000C438D107C9F70E941D2C0C94F53A0C94F6
:103CE00000001F920F920FB60F9211242F938F9303
:103CF0009F93EF93FF932091C60080919A0190913A
:103D00009B018150891B8F7161F0E0919B01F0E074
:103D1000E252FC4F208380919B018F5F8F718093D3
:103D20009B01FF91EF919F918F912F910F900FBE6B
:103D30000F901F9018951F920F920FB60F9211249B
:103D40002F933F938F939F93AF93BF9380919C0149
:103D500090919D01A0919E01B0919F013091A00191
:103D60000196A11DB11D232F2D5F2D3720F02D575A
:103D70000196A11DB11D2093A00180939C019093F9
:103D80009D01A0939E01B0939F01BF91AF919F9120
:103D90008F913F912F910F900FBE0F901F9018950C
:103DA000AB01BC012FB7F89480919C0190919D01CB
:103DB000A0919E01B0919F012FBF480F591F6A1F0C
:103DC0007B1F2FB7F89480919C0190919D01A09149
:103DD0009E01B0919F012FBF84179507A607B707D3
:103DE00080F308958FB7F89420919C0130919D0144
:103DF00040919E0150919F018FBFB901CA01089562
:103E000085B5887F836085BD84B5836084BDEEE61B
:103E1000F0E080818160808308950F931F93CF939A
:103E2000DF938C01EB0160E070E0AE010E94D23ABA
:103E3000009719F0EC01C01BD10BCE01DF91CF919F
:103E40001F910F9108951F93CF93DF93EC01162FCD
:103E500070E00E940D1F90E205C0FE01E80FF11D09
:103E600090838F5F8117C8F3DF91CF911F910895E1
:103E7000FF920F931F93CF93DF93EC01F62E062F43
:103E800010E0B8010E940D1F282F8F15D9F0DE0118
:103E9000A00FB11F1297E82FF0E03197EC0FFD1F34
:103EA00090E030E20DC0921728F4808111968C9337
:103EB000119703C011963C9311979F5F119731970B
:103EC0009F1588F3DF91CF911F910F91FF90089577
:103ED000089583E08093A2011092B5010895209186
:103EE000A20130E0F901EE0FFF1FE20FF31FEE0F0A
:103EF000FF1FE55BFE4FE481F0E093E0EE0FFF1F54
:103F00009A95E1F7E95CFE4F0190F081E02D09956B
:103F100008952091A20130E0F901EE0FFF1FE20F9A
:103F2000F31FEE0FFF1FE55BFE4FE481F0E053E06F
:103F3000EE0FFF1F5A95E1F7ED5CFE4F0680F7810B
:103F4000E02D099508958091A1018823D9F08091F1
:103F5000A20190E0FC01EE0FFF1FE80FF91FEE0F2A
:103F6000FF1FE55BFE4FE481F0E0A3E0EE0FFF1FD3
:103F7000AA95E1F7ED5CFE4F0190F081E02D0995E7
:103F80001092A101089581E08093A1018091A20186
:103F900090E0FC01EE0FFF1FE80FF91FEE0FFF1F6F
:103FA000E55BFE4FE481F0E033E0EE0FFF1F3A9552
:103FB000E1F7EB5CFE4F0190F081E02D099508954B
:103FC000282F8091C801823069F48091C601E82FC2
:103FD000F0E0ED5EFC4F9081920F892F8052813688
:103FE00008F490830895E82F8091A201873029F486
:103FF000EF3119F48091C70108958091C70123E042
:10400000829FC0011124E80FF0E0E354FD4F80814E
:104010000895109253048F5F8093FE030895DB018F
:10402000E82FF0E084E0EE0FFF1F8A95E1F7EF5DE7
:10403000FB4F20E130E20EC09C3731F09E3F21F073
:10404000892F8850883110F4308301C090831196F5
:10405000215031969C91992311F0222369F70895FC
:104060001F93CF93DF939C01162FEA016623C1F1C2
:10407000009729F4FA0180E3819361502FC097FFE4
:1040800006C08DE289931150309521953F4F40E055
:10409000E42FF0E0E55BFB4FC9016AE070E00E94AD
:1040A000643A80834F5FC9016AE070E00E94643A1D
:1040B0009B016115710561F7642FDE0108C0415055
:1040C000E42FF0E0E55BFB4F8081805D8D9344231E
:1040D000B1F7FE01E60FF11D161B612F6111108271
:1040E000DF91CF911F910895282F8091CF0190915A
:1040F000D0018150891B8770C1F3E091D001F0E0BD
:10410000EE5BFB4F20838091D0018F5F877080939F
:10411000D0010895E82FFFB7F894529A5A988EEE7E
:1041200090E020E001972FEF8F3F9207D9F731E021
:1041300040E050E069EE70E0A0E0832F8E2311F4A0
:104140005A9801C05A9ACB012A2F01972FEF8F3F1F
:104150009207D9F7330F4F5F5F4F4830510569F72A
:104160005A9AFFBF8EEE90E020E001972FEF8F3F2D
:104170009207D9F7089508959B01E82FF0E0EE0F1C
:10418000FF1FEB57FE4F65917491C90150E00E94EB
:10419000C33A0895FF920F931F93CF93DF938C013F
:1041A000EB01F42EFC0180810E94F31F382F90E078
:1041B000F8012381E22FF0E0E859FF4F44912A30C3
:1041C00059F12B3070F4273061F1283020F422307F
:1041D00009F06BC015C02830B9F0293009F065C06E
:1041E00015C02D3091F12E3020F42B3009F05DC038
:1041F00020C02E3009F43CC02F3009F056C045C015
:10420000992787FD909551C001964FC0F4E0FF15A6
:1042100008F44BC040E64BC024E02F1508F052C014
:1042200044C08031910514F040973FC00196E8E703
:104230003AC03370E32FF0E0E858FF4FE4919595D2
:1042400087959595879501962CC0883291051CF429
:10425000839741E92CC0813F91053CF1315FE32F09
:10426000F0E0EE0FFF1FE95EF14F859194911DC0C4
:10427000FC0124E0F595E7952A95E1F7F0E0E45894
:10428000FF4FE4918F7090700CC0823291051CF04A
:104290008297EEE308C0813191053CF04197EBE253
:1042A00002C0EE2311F0E993FA94442331F0840F15
:1042B000BE014F2D0E94BC2007C06F2DAE010E9491
:1042C000302002C04CE1F3CFDF91CF911F910F91CD
:1042D000FF900895FF920F931F93F82E05EA11E0C7
:1042E000B80140E10E94BC20C80160E10E94231F88
:1042F00080E0B8010E940F208F2D8F5FB80140E150
:104300000E94BC20C80160E10E94231F81E0B80127
:104310000E940F201F910F91FF900895382F8091D8
:10432000A201873039F43F3129F46093C7016093CB
:10433000A40108958091C70123E0829FC001112448
:10434000830F0E943B3608950F931F93CF93DF9303
:10435000082F2091A3018091A2018C3059F4E22F03
:10436000F0E0EE0FFF1FE75FFE4F81818093C701F2
:1043700080810CC090E0FC01EE0FFF1FE80FF91FD9
:10438000EE0FFF1FE55BFE4F8581820F0E949D2986
:10439000EC011881812F0E94F31F682F70E08B8140
:1043A000202F332727FD30959981823089F4772794
:1043B00067FD7095620F731F892F992787FD909570
:1043C00068177907A4F08A81992787FD909509C01D
:1043D000620F731F892F90E06817790744F08A8174
:1043E00090E0861797071CF0812F0E948E21DF91A5
:1043F000CF911F910F9108951F93182F862F0E9420
:104400009D29FC01518142814F5F451B2091010193
:1044100030910201C90181709070909581959F4FF4
:104420008070947B3695279582279327909302017D
:1044300080930101692F01C0641B6417E8F723E032
:10444000129F900111248081650F820F0E943B36DC
:104450001F9108951F9310E080E0612F0E94FC21BE
:104460001F5F1C31C9F710E0812F6DE10E94FC2114
:10447000812F6EE10E94FC21812F6FE10E94FC21BF
:104480001F5F1E3089F71F910895CF93DF938091AE
:10449000A201873049F58DE10E949D2969EA71E00A
:1044A00043E00E94CA208EE10E949D296DEA71E0DE
:1044B00044E00E94CA208DE68093A5018FE6809398
:1044C000A60184E68093A70180E28093A8018EE391
:1044D0008093AC018DEA91E068E00E94231F80E0A8
:1044E00065EA71E00E940F202091A3018091A20152
:1044F0008C3059F4E22FF0E0EE0FFF1FE75FFE4F24
:1045000081818093C70180810CC090E0FC01EE0F97
:10451000FF1FE80FF91FEE0FFF1FE55BFE4F8581C0
:10452000820F0E949D29EC018091A2018730D1F079
:1045300090E0FC01EE0FFF1FE80FF91FEE0FFF1FC9
:10454000E55BFE4F838165EA71E040E10E94BC209B
:1045500085EA91E060E10E94231F80E065EA71E056
:104560000E940F208D8165EA71E04AE00E94BC2024
:1045700085EA91E06AE00E94231FCE016FEA71E0B4
:1045800046E00E94CA208FEA91E066E00E94381F50
:1045900081E065EA71E00E940F20DF91CF910895DC
:1045A000BF92CF92DF92EF92FF920F931F93CF9320
:1045B000DF93C5EAD1E0E9E0CE2EE1E0DE2EBB24B8
:1045C0008091A2018C3031F4F60181818093C70182
:1045D00080810CC090E0FC01EE0FFF1FE80FF91F77
:1045E000EE0FFF1FE55BFE4F85818B0D0E949D291D
:1045F0007C01FC018481BE0143E00E94BC201B823F
:10460000CE0164E00E94381F8E010F5E1F4FC7016C
:10461000B80143E00E94CA201C8AC80164E00E94DD
:10462000381FB394249682E090E0C80ED91E94E01F
:10463000B91631F680E065EA71E00E940F2081E052
:1046400066EB71E00E940F20DF91CF911F910F91D7
:10465000FF90EF90DF90CF90BF9008951F93CF937E
:10466000DF938DE865EA71E040E10E94BC2085EAB5
:1046700091E060E10E94231F80E065EA71E00E9402
:104680000F20C5EAD1E010E08CEB92E0612F0E9490
:104690008228982F80911B03181710F080E208C021
:1046A000892F82958F708A3010F4805D01C0895AFD
:1046B00089931F5F103141F781E065EA71E00E9444
:1046C0000F208091C601805F80932004DF91CF91FD
:1046D0001F910895EF92FF920F931F93182F00914F
:1046E000C601FCEBEF2EF2E0FF2EC701602F0E9407
:1046F00082281295107F180FC701602F412F0E944A
:104700009F281F910F91FF90EF9008958CE865EA24
:1047100071E040E10E94BC2085EA91E060E10E94E6
:10472000231F80E065EA71E00E940F208091C9019B
:1047300090E0019662E045EA51E00E94302085EA6F
:1047400091E062E00E94381F80E28093A701A8EA0E
:10475000B1E0E3E1F3E088E001900D928150E1F7F0
:1047600080E28093B0019091C801923021F4809151
:10477000C6018D5E01C08FEF80932004892F825780
:1047800061EB71E044E00E94BC2081E065EA71E0E9
:104790000E940F2008950E9416350E940E308CEB67
:1047A00092E00E945E370895EF92FF921F93CF939D
:1047B000DF93EB01813041F1813030F08230A9F19B
:1047C000833009F064C047C084E0CC0FDD1F8A95B8
:1047D000E1F77E011F2D169516958091C9011817D6
:1047E00059F08091C801882339F48CEB92E0612F55
:1047F0000E9431290E94CB238091C801813009F4A5
:1048000046C01093C90143C08091C801823009F0AD
:104810003EC013E0CC0FDD1F1A95E1F77E018F2D0E
:10482000869586958093C60132C08091C8018230FA
:1048300071F5CB01880F991FE091C601F0E0ED5EA4
:10484000FC4F860F971FA5E096958795AA95E1F7EF
:10485000805E80831CC06034710518F41092C8011A
:1048600016C08091C801882351F48091CA018093B9
:10487000C9018CEB92E00E942C290E94CB23C05CE2
:10488000D34010F481E001C082E08093C801DF9141
:10489000CF911F91FF90EF9008958091A2018B30EE
:1048A00071F48091C801823051F48CEB92E06091F8
:1048B000C9010E9466298CEB92E00E943E288BE0A1
:1048C0008093A2018091C9018093CA018CEB92E090
:1048D0000E94272981E08093C8010895482F1092F3
:1048E000C6011092C7011092CC018FEF8093200473
:1048F00081E08093A101443031F48BE08093A201E8
:104900000E944D2408958093C8018091A20190E0F7
:104910009C01220F331F280F391FF901EE0FFF1FD3
:10492000E35BFE4F8081481731F0E42FF0E0ED5F4C
:10493000FE4F808106C0F901EE0FFF1FE55BFE4FC1
:1049400081818093A2019091A201973021F48091FE
:10495000A4018093C701E42FF0E0ED5FFE4F908348
:1049600008950F931F93CF93DF93082FEB0180914E
:10497000CC01882391F0E02FF0E0EE0FFF1FE75FFE
:10498000FE4F8091CD019091CE0191838083109252
:10499000CC0185E00E946E242DC08091A2018C3054
:1049A00059F4E02FF0E0EE0FFF1FE75FFE4F81812B
:1049B0008093C70180810CC090E0FC01EE0FFF1FC7
:1049C000E80FF91FEE0FFF1FE55BFE4F8581800F9B
:1049D0000E949D29FC01108173E0D695C7957A95B8
:1049E000E1F76C2F0E948A29682F812F0E948E2167
:1049F0000093A301DF91CF911F910F910895E82FAC
:104A0000AB018091CC01882389F0F0E0EE0FFF1F0D
:104A1000E75FFE4F8091CD019091CE01918380831D
:104A20001092CC0185E00E946E240895E13089F057
:104A3000E13028F0E230E9F0E330C9F525C036E096
:104A4000569547953A95E1F740931C031092A301C0
:104A50000895CB0126E0969587952A95E1F78093F6
:104A6000C60190911B039150981708F59093C601C9
:104A7000089556954795569547958CEB92E0609131
:104A8000C6010E949F28089586E0569547958A950D
:104A9000E1F7642F6F5F8091C601861710F0409395
:104AA000C6018EE50E943B3681E08093A301089504
:104AB0001F93182F8230F1F1833030F4882359F09E
:104AC000813009F0A7C012C0833009F481C084305E
:104AD00009F0A0C08FC08091A2018B3019F40E9410
:104AE000333798C085E00E946E2494C08091A20163
:104AF0008B3019F40E942A228DC08B3008F08AC0B6
:104B000090E0FC01EE0FFF1FE80FF91FEE0FFF1FF3
:104B1000E55BFE4F8091A3019581890F8093CD01C4
:104B20008091C7018093CE0188E80E946A2110938A
:104B3000CC0170C0693008F46DC08091A2018B3047
:104B400069F48FE40E9409208CE70E94742089E0B8
:104B50000E94742080E40E9409205CC080E00E94D2
:104B600069361092CB0180E090E030E22FE3FC0147
:104B7000EF5DFB4F3083FC01E050FC4F208301963A
:104B800080329105A1F78FEF809341041092520477
:104B90008093200410E08CE70E948A208BE00E9422
:104BA0008A2068EC70E080E090E00E94D01E1F5FD9
:104BB000163089F78DE080934A048AE08093FF03E2
:104BC000529A5A9A81E08093A1010E94A31F22C0A9
:104BD0008091CB01882311F444E601C040E080E0DD
:104BE00060E30E941B378091CB0191E0892780937D
:104BF000CB0110C0693070F08AE80E946A212DE074
:104C000088E190E00FB6F894A895809360000FBEFD
:104C1000209360001F9108951F93CF93DF93EC01C1
:104C2000162F8981843019F4633009F443C0198345
:104C3000133051F58881E82FF0E0EE0FFF1FE950A7
:104C4000FC4F6591749180E090E02E813F81220FAE
:104C5000232F221F330B30E040E050E00E94253A22
:104C6000672F782F892F99279B01672B11F421E05B
:104C700030E088279927821B930B9B838A83892B9B
:104C800071F48FEF9FEF09C0E12FF0E03496EE0F43
:104C9000FF1FEC0FFD1F808191819B838A83E12F91
:104CA000F0E03A96EE0FFF1FEC0FFD1F808191811F
:104CB0009D838C83DF91CF911F910895FC018FEF2D
:104CC0009FE3958B848B15861486138E128E8FEF3F
:104CD0009FEF958F848F118A108ACF0164E00E9424
:104CE0000C2608950F931F93CF93DF93EC01742F3D
:104CF000122FE62FF0E0EE0FFF1FE950FC4F259139
:104D0000349140E050E0DA01C90167E0880F991F53
:104D1000AA1FBB1F6A95D1F7821B930BA40BB50B7F
:104D2000892F9A2FAB2FBB279C01892B11F421E0EF
:104D300030E039872887E72FF0E0EE0FFF1FE950BA
:104D4000FC4F6591749180E090E02FE7211B30E0EB
:104D500040E050E00E94253A672F782F892F99274D
:104D60009B01672B11F421E030E088279927821BF3
:104D7000930B9B878A87812F90E09695982F8827A1
:104D8000979587959F8B8E8B0883DF91CF911F918D
:104D90000F910895382F5091050220E012C0852F01
:104DA00090E0DC01AA0FBB1FA80FB91FAE52BE4F87
:104DB0008C91831719F4222339F418C0252F1296E9
:104DC0005C91552361F70895822F90E0FC01EE0F6E
:104DD000FF1FE80FF91FEE52FE4F12968C9182834F
:104DE0004091D101E6E0F2E090E019C012968C917A
:104DF00080930502F5CF8191851781F4242F30E04F
:104E00002150304005C0EA5FFD4F818180839F5F64
:104E1000E92FF0E0E217F307B4F303C09F5F9417A4
:104E200050F3852F90E0FC01EE0FFF1FE80FF91FF4
:104E3000EE52FE4F12828FEF8083118241504093D9
:104E4000D10108950F931F93182F062F0E94CA2691
:104E50008091D101803171F4E5EDF1E08281882308
:104E600009F49081339682E0E530F807B9F7892F8D
:104E70000E94CA26E5EDF1E091E080818F3F09F4C0
:104E8000592F9F5F33969131C1F7852F90E0FC0138
:104E9000EE0FFF1FE80FF91FEE52FE4F8091050243
:104EA000828310830183509305024091D10120E059
:104EB00030E022C0D901F901EA5FFD4F808190E026
:104EC000FC01EE0FFF1FE80FF91FEE52FE4F80812D
:104ED0002F5F3F4F181780F4942F08C0E92FF0E0A0
:104EE000EA5FFD4F82913196808391506917B0F34C
:104EF000AA5FBD4F5C930AC0622F2417D8F25523D6
:104F000029F0E42FF0E0EA5FFD4F50834F5F4093BC
:104F1000D1011F910F910895CF93DF931092D1018A
:104F2000A5EDB1E080E3ED0119928A95E9F780E102
:104F3000E7E0F2E0EF0119928A95E9F71092050295
:104F4000FD0133978FEF8083339692E0E530F907C8
:104F5000D1F7DF91CF910895CF93DF93AC01EC01AE
:104F6000DC0120E030E0FB01E20FF31F11968C9191
:104F7000119780832F5F3F4F11962C31310599F7A0
:104F8000FB0130E02E8D222F2295207F8D8D282B46
:104F9000248F8F8D858F3F5F239632963A3091F71D
:104FA000DA01A55BBF4FFB01F09620E08D91819364
:104FB0002F5F2830D9F7DA01A95ABF4FFB01F896C5
:104FC00090E08D9181939F5F9830D9F7DF91CF91D9
:104FD0000895EDE1F2E08081813880F4319682E03D
:104FE000E133F807C1F77E968081813838F4319635
:104FF00082E0E735F807C1F781E0089580E0089581
:10500000CF93DF93AC01EC01DC0120E030E0FB0149
:10501000E20FF31F808111968C9311972F5F3F4F02
:1050200011962C31310599F7FB0190E0848D8F703A
:105030008D8F248D222F22952F702E8F858D8F8F0F
:105040009F5F329623969A3089F7DB01D096FA015A
:10505000E55BFF4F20E08D9181932F5F2830D9F7DA
:10506000FB01F896DA01A95ABF4F90E081918D9328
:105070009F5F9830D9F7DF91CF91089567E172E093
:105080000E94AC27E1E8F0E094918091C00085FF98
:10509000FCCF9093C600319680E0E938F807A1F77D
:1050A000E7E1F2E030E02081320F922F92959F707D
:1050B0008091C00085FFFCCF9093C6008091C00016
:1050C00085FFFCCF2F702093C600319682E0E73534
:1050D000F80749F7932F92959F708091C00085FF44
:1050E000FCCF9093C6008091C00085FFFCCF3F703D
:1050F0003093C6008091C00085FFFCCF87EF80937E
:10510000C6000895FC01E05AFF4F8081E056F04050
:10511000680F6F7070E0CB019595879560FF08C0B0
:10512000E80FF91FE55BFF4F80818295807F08952E
:10513000E80FF91FE55BFF4F8081807F0895FC0138
:10514000E05AFF4F8081E056F040680F6F7070E0CA
:10515000CB019595879560FF09C0E80FF91FE55BC6
:10516000FF4F8081807F42954F7007C0E80FF91F85
:10517000E55BFF4F80818F70407F842B8083089593
:10518000CF93DF93EC01603F31F4109299021092BB
:10519000980210929A0280919A028130D9F081305F
:1051A00020F0823009F050C039C080919802E82F79
:1051B000F0E0EF57FF4FE491E61771F58F5F8093B2
:1051C0009802883008F440C081E080939A021092DF
:1051D00098023AC090919802292F2695E22FF0E08C
:1051E00090FF0EC0E95EFD4F6F708081682B608379
:1051F000203460F480919902860F8093990206C052
:10520000862F8295807FE95EFD4F8083892F8F5F97
:10521000809398028238C0F082E014C0673F89F41E
:105220009091990280915702981759F40E94E927AA
:10523000882339F0CE0167E172E00E94002883E004
:1052400001C084E080939A02DF91CF91089568E5D0
:1052500072E00E94AC27089568E572E00E94002881
:105260000895EF92FF920F931F93CF93DF937C01EA
:10527000062F10E046E0000F111F4A95E1F7C0E04D
:10528000D0E0CE01800F911F0E94DF3AFE01E95E5F
:10529000FD4F80832196C034D10599F70E94E927FC
:1052A000882331F0C70167E172E00E94002807C03F
:1052B00087E590E0E80EF91E8FE3F7018083DF9128
:1052C000CF911F910F91FF90EF9008950F931F932F
:1052D000CF93DF93162F67E172E00E94AC27012F76
:1052E00010E056E0000F111F5A95E1F7C0E0D0E042
:1052F000FE01E95EFD4FCE01800F911F60810E948B
:10530000E73A2196C034D10599F7DF91CF911F91EB
:105310000F910895FC018381882369F021818281A6
:105320008F5F821B689FC0011124880F892F881FFF
:10533000990B622F680F862F0895982F8091110185
:10534000981771F09093110166E0969FB0011124B7
:1053500067577F4F8BE992E046E050E00E94BA3AEF
:105360008BE992E008958091CF019091D001815016
:10537000891B8770833008F481C0809153048F5F4C
:105380008F7780935304882339F480915204809559
:10539000809352041092FE03309110052091200456
:1053A000321731F480915204882311F04FEF17C067
:1053B0009091FE03992371F0332311F03F3051F4A3
:1053C000E32FF0E0EF5DFB4F8081803219F4492F2D
:1053D000415005C0E32FF0E0EF5DFB4F4081A32F6C
:1053E000B0E0FD01E050FC4F8081481719F43217FE
:1053F00009F040C08091410490E00196A817B907D8
:1054000029F4CD018F709070892B19F5E091D001AE
:10541000F0E0EE5BFB4F8EEF80838091D0018F5FD9
:1054200087708093D001E091D001F0E0EE5BFB4FFC
:10543000232F2F702068CD01807F880F991F880F40
:10544000991F282B20838091D0018F5F87708093D4
:10545000D001E091D001F0E0EE5BFB4F4083809102
:10546000D0018F5F87708093D001A050BC4F4C93C8
:10547000309341043F5F3F71309310050895809150
:10548000A7028F5F8093A702833010F01092A702CB
:10549000E091A7028E2F8F5F877090910001892B7A
:1054A00080937C0080917A00806480937A00809160
:1054B0007A0086FDFCCF2091780040917900F0E0E1
:1054C000EF54FD4F942F80E030E0822B932B959585
:1054D000879595958795878308951F920F920FB6AC
:1054E0000F9211242F938F939F93EF93FF938091AB
:1054F0004A04815080934A048823C9F58DE0809343
:105500004A042091FF032A30C1F48091D001909188
:10551000CF01891B877059F1E091CF01F0E0EE5B7C
:10552000FB4F90818091CF018F5F87708093CF0177
:1055300090930A051092FF031AC0222329F45A9867
:1055400081E08093190510C0293011F45A9A0CC0DB
:105550009091190580910A05892311F45A9801C088
:105560005A9A990F909319052F5F2093FF0380910A
:10557000AC029091AD02891B8F7779F0E091AD027A
:10558000F0E0E258FB4F90818091AD028F5F8F7702
:105590008093AD029093B40009C08091AA029091CB
:1055A000AB0201969093AB028093AA02FF91EF9118
:1055B0009F918F912F910F900FBE0F901F90189574
:1055C000FC01F595E79580FF07C0EB58FB4F808104
:1055D0008F706295607F04C0EB58FB4F8081807FA5
:1055E000862B808308952091AA023091AB0280918E
:1055F000A8029091A9022817390739F03093A9021F
:105600002093A80281E20E9409200895982F882300
:1056100011F4559809C08150823008F4559A92309F
:1056200019F484B5806202C084B58F7D84BD08956D
:105630001092A1021092A5021092A6020895EF9274
:10564000FF921F93CF93DF93E4E5F4E0119284E09F
:10565000E437F807D9F7C0E2D1E020E041E01BC011
:10566000203208F020E0E22FF0E0EC5AFB4F80817E
:10567000882311F02F5FF4CF408380E290E0612F08
:1056800070E00E94503A260F3F5F311748F34F5F9A
:105690002396483019F0188130E0F7CF80E090E091
:1056A00030E22FE3FC01EF5DFB4F3083FC01E05063
:1056B000FC4F2083019680329105A1F78FEF8093F4
:1056C0004104109252048093200410E08CE70E9461
:1056D0008A208BE00E948A2068EC70E080E090E0F5
:1056E0000E94D01E1F5F163089F78DE080934A0418
:1056F0008AE08093FF03529A5A9A0E94691F539A34
:105700008091B00080628093B00080918100887F9A
:10571000816080938100809180008C7F8160809384
:1057200080008091B100887F81608093B10080917A
:10573000B0008C7F81608093B000809170008160A8
:1057400080937000219A809180008068809380000F
:10575000229A80918000806280938000239A8091B9
:10576000B00080688093B0008CE70E9474208DE9BF
:105770000E947420E0901C01F0901D018EEF0E94A9
:10578000742081E00E94742010E08EEF0E9474204B
:10579000812F805C0E947420C0E0D0E0812F8C0FAC
:1057A000F701E80FF11DE4918E2F80620E947420B2
:1057B0002196C830D10591F78EEF0E94742081E0C8
:1057C0000E947420185F103401F786E90E946A2154
:1057D0001092C5008FE18093C4008091C100886061
:1057E0008093C1008091C10080618093C10080914D
:1057F000C10080688093C10010927C0481E0809396
:105800000F051092180580937D042098289A0E9415
:10581000062B579A549A5F9A81E00E94062B569A5B
:1058200084B58F7784BD549A5E9A0E945237DF9177
:10583000CF911F91FF90EF90089578940E94001FE0
:1058400080917A00876080937A0080917A008068E6
:1058500080937A001092C1000E941F2B20917B043C
:105860002F5F203208F020E0E22FF0E0EC5AFB4FEF
:1058700080818823A9F320937B0490E00197FC01A9
:10588000EE0FFF1FE80FF91FE25EFE4F0190F0815F
:10589000E02D0995E3CF1F938091AD029091AC026A
:1058A0008150891B8F778032B0F10E9499358091A9
:1058B0007403882389F090E220E8E091AC02F0E0E4
:1058C000E258FB4F20838091AC028F5F8F778093EB
:1058D000AC02915091F713C010E20E941B30E0918E
:1058E000AC02F0E0E258FB4F80918B038083809103
:1058F000AC028F5F8F778093AC02115071F780916B
:1059000080038093880080918A0380938A0080912D
:1059100081038093B3001F9108950F931F93CF933A
:10592000DF93EC01162F107F062F0F70103F09F444
:1059300054C0802F0E94C92F882309F071C07FC0F6
:10594000802F69814A810BC04A81442329F0802F2E
:1059500069810E941B3773C0802F698140E00E94DB
:105960000B376DC069816B37C9F06C3740F469370C
:1059700089F06A3708F063C06837E1F407C06D3713
:10598000A9F06D3778F06038A8F459C0802F0E94D4
:10599000693655C0802F0E94E92F51C0802F0E9488
:1059A00095364DC0802F0E94EF2F49C0802F0E9456
:1059B000FA2F45C0802F4A810E94983640C06A81E4
:1059C00070E07695762F6627779567958981680FC1
:1059D000711D802F0E94DD2F32C00830A9F00930E0
:1059E00028F4002351F0073051F50BC00C3091F032
:1059F0000F3099F00A3019F50AC089810E94893662
:105A00001EC00E9483361BC00E94053018C00E9431
:105A1000633615C00E940B3012C00E946C360FC056
:105A2000103B09F49FCF113B30F4103809F488CFB4
:105A3000103929F489CF103E11F2103F71F2DF9135
:105A4000CF911F910F910895FF920F931F9310E034
:105A5000FF24F39402E073C0E0919A01F0E0E25277
:105A6000FC4F108180919A018F5F8F7180939A0112
:105A70008091C00085FFFCCF1093C600183F30F026
:105A800081EA92E0612F0E948D2C55C017FF30C033
:105A90001092A502F092A602812F807F803AA1F099
:105AA000813A28F4803881F08039A9F40DC0803E15
:105AB00059F0803F19F0803B71F406C0912F9F7020
:105AC000892F8150823018F40093A60204C09430CC
:105AD00010F01092A6028091A102803F11F40E9462
