:100000000C94EB180C9413190C9413190C941319E9
:100010000C9413190C9413190C9413190C941319B0
:100020000C9413190C9411250C9413190C94131996
:100030000C9413190C9413190C9413190C94131990
:100040000C943F190C9413190C9415190C94131952
:100050000C9413190C9413190C9413190C94131970
:100060000C9413190C9413190000006212216400FF
:1000700000793000A10000000304053F7366706C36
:1000800068F00020770001010000000E04464602DF
:10009000007F00000604F40C0201070600030502BD
:1000A0000801010404464603007F00000605E81825
:1000B00002010707007F00030908003F012C0A091D
:1000C000003F012E0B0A003F012D1B0B03040446C9
:1000D000460C007F0025300D003F012F490E003FE8
:1000E0000247470F003F02484810007F003B4D1277
:1000F000007F004E4E14007F004F4F16007F0050CF
:100100005011007F003B4D13007F004E4E15007FC5
:10011000004F4F17007F005050180004063C511A42
:10012000008F073D52190004063E531B008F073F06
:10013000541F000D0855551C000F0940561D000A9C
:100140000A41571EC13F0242584623F60D445C4700
:10015000000401595948003B0B0C0C49004F0E0D8F
:100160000D52FE020259595300200C5A5A54C13FF5
:100170000204055500320F435B5F000F018F8F5E55
:100180000110019090BB2CBF2CC32CC62CCA2CCEC6
:100190002CD42CDE2CE42CED2CF42CFC2C052D0D79
:1001A0002D142D212D2E2D372D432D482D4D2D5124
:1001B0002D582D5F2D622D652D6B2D6F2D752D7B8F
:1001C0002D812D872D8D2D912D952D992D9D2DA135
:1001D0002DA52DA92DAD2DB12DB42DB72DB92DBD2A
:1001E0002DC12DC52DC92DD02DD42DD92DDE2DE31A
:1001F0002DE82DEF2DF32DF92D002E052E092E0DB6
:100200002E112E152E192E1D2E212E252E292E2D86
:100210002E312E372E402E492E532E5E2E692E73F0
:100220002E7A2E802E882E902E9A2EA42EAE2EB8A8
:100230002EBD2EC42ECA2ED12ED82EDD2EE72EEDA9
:100240002EF32EFA2EFF2E0A2F132F172F1A2F1EE2
:100250002F222F262F282F2C2F302F342F382F3CB2
:100260002F402F442F482F4C2F502F542F582F5CA6
:100270002F602F642F682F6C2F712F762F7D2F8189
:100280002F882F8F2F962F9A2F9E2FA22FA92FAE18
:100290002FB32FB82FBD2FC22FC62FCA2FCE2FD2CC
:1002A0002FD62FDA2FE02FE72FF72F08300E301C34
:1002B00030273036303B30403045304C3053305AA8
:1002C000306130683079308A30903095309C30A37E
:1002D00030A930B030B730BE30C430CA30D030D79B
:1002E00030DD30E230E930F030F730FE3005310CEF
:1002F0003113311A31213128312E3135313C31431E
:10030000314A31513158315F310400040004000496
:1003100000050005000500060006000700070007AD
:10032000000800080009000A000A000B000B000C7E
:10033000000D000E000F000F00100011001200143D
:100340000015001600170019001A001C001E0020DE
:100350000021002300260028002A002D0030003252
:1003600000360039003C004000440048004C005179
:100370000056005B00600066006C0073007900812D
:1003800000880091009900A200AC00B700C100CD28
:1003900000D900E600F400030112012301340147F3
:1003A000015A016F0185019C01B501CF01EB0108E4
:1003B00002270248026B029102B802E2020E033CDD
:1003C000036E03A303DA03150454049604DC042724
:1003D000057605C90522068006E4064D07BD0733EC
:1003E00008B1083609C309590AF70A9F0B510C0EC8
:1003F0000DD60DA90E8A0F781074117F129B13C7AA
:100400001405165617BC18361AFE7F9067B254EFC3
:1004100045403AE9305E293A232F1E031A89169F78
:10042000132A11140F4D0DC70B770A550959087D72
:1004300007BD0614068005FD0488042104C5037267
:10044000032903E702AB02750245021902F101CD4F
:1004500001AC018E017201590142012D0119010700
:1004600001F700E800DA00CD00C000B500AB00A144
:100470000098009000880081007A0074006E006887
:100480000063005E005900550051004D00490046D0
:1004900000430040003D003A003800350033003191
:1004A000002F002D002B0029002700260024002308
:1004B00000220020001F001E001D001C001B001A4F
:1004C000001900180017001600150015001400137D
:1004D000001300120011001100100010000F000F97
:1004E000000E000E000D000D000C000C000C000BA7
:1004F000000B000B000A000A000A000900090009AD
:10050000000900080008000800251129112D1131EB
:1005100011351139113D114111451149114D11513B
:1005200011551159115D116111651169116D11712B
:1005300011751179117D118111851189118D11911B
:1005400011951199119D11A111A511AA11AE11B208
:1005500011B611BA11BE11C211C611CA11CE11D3F2
:1005600011D711DB11DF11E311E711EB11EF11F4DA
:1005700011F811FC110012041208120D12111215BB
:100580001219121D12211226122A122E123212369E
:10059000123B123F12431247124C1250125412587F
:1005A000125C126112651269126D12721276127A61
:1005B000127F12831287128B129012941298129D3E
:1005C00012A112A512A912AE12B212B612BB12BF1C
:1005D00012C312C812CC12D012D512D912DE12E2F6
:1005E00012E612EB12EF12F312F812FC12011305CD
:1005F0001309130E13121317131B131F132413289D
:10060000132D13311335133A133E13431347134C71
:10061000135013551359135E13621367136B137042
:1006200013741379137D13821386138B138F139412
:100630001398139D13A113A613AA13AF13B313B8E2
:1006400013BC13C113C613CA13CF13D313D813DCAF
:1006500013E113E613EA13EF13F313F813FD130179
:100660001406140B140F14141419141D1422142638
:10067000142B143014341439143E14421447144CFF
:1006800014511455145A145F14631468146D1471C2
:100690001476147B148014841489148E1493149784
:1006A000149C14A114A614AA14AF14B414B914BE43
:1006B00014C214C714CC14D114D614DA14DF14E401
:1006C00014E914EE14F314F714FC14011506150BB9
:1006D000151015151519151E15231528152D15326C
:1006E0001537153C15411546154A154F1554155922
:1006F000155E15631568156D15721577157C1581D6
:100700001586158B15901595159A159F15A415A985
:1007100015AE15B315B815BD15C215C715CC15D135
:1007200015D615DB15E015E515EA15EF15F415F9E5
:1007300015FE15041609160E16131618161D162288
:100740001627162C16321637163C16411646164B2F
:1007500016501656165B16601665166A166F1675D5
:10076000167A167F16841689168F16941699169E79
:1007700016A316A916AE16B316B816BE16C316C81B
:1007800016CD16D316D816DD16E316E816ED16F2BA
:1007900016F816FD16021708170D17121718171D51
:1007A00017221728172D17321738173D17431748E8
:1007B000174D17531758175D17631768176E177380
:1007C0001779177E17831789178E17941799179F14
:1007D00017A417AA17AF17B417BA17BF17C517CAA8
:1007E00017D017D517DB17E017E617EC17F117F737
:1007F00017FC17021807180D18121818181D1823BF
:100800001829182E18341839183F1845184A185046
:100810001855185B18611866186C18721877187DCF
:1008200018831888188E18941899189F18A518AA54
:1008300018B018B618BB18C118C718CD18D218D8D8
:1008400018DE18E418E918EF18F518FB1800190657
:10085000190C19121918191D19231929192F1935CD
:10086000193A19401946194C19521958195E196349
:100870001969196F1975197B19811987198D1992C1
:100880001998199E19A419AA19B019B619BC19C238
:1008900019C819CE19D419DA19E019E619EC19F2A8
:1008A00019F819FE19041A0A1A101A161A1C1A2213
:1008B0001A281A2E1A341A3A1A401A461A4C1A5280
:1008C0001A581A5E1A651A6B1A711A771A7D1A83EA
:1008D0001A891A8F1A961A9C1AA21AA81AAE1AB452
:1008E0001ABB1AC11AC71ACD1AD31AD91AE01AE6B6
:1008F0001AEC1AF21AF91AFF1A051B0B1B121B1815
:100900001B1E1B241B2B1B311B371B3D1B441B4A6F
:100910001B501B571B5D1B631B6A1B701B761B7DCB
:100920001B831B891B901B961B9D1BA31BA91BB024
:100930001BB61BBC1BC31BC91BD01BD61BDD1BE37B
:100940001BE91BF01BF61BFD1B031C0A1C101C17CC
:100950001C1D1C241C2A1C311C371C3E1C441C4B17
:100960001C511C581C5F1C651C6C1C721C791C7F64
:100970001C861C8D1C931C9A1CA01CA71CAE1CB4AE
:100980001CBB1CC21CC81CCF1CD51CDC1CE31CE9F6
:100990001CF01CF71CFE1C041D0B1D121D181D1F36
:1009A0001D261D2D1D331D3A1D411D481D4E1D5573
:1009B0001D5C1D631D6A1D701D771D7E1D851D8CB0
:1009C0001D921D991DA01DA71DAE1DB51DBC1DC2EC
:1009D0001DC91DD01DD71DDE1DE51DEC1DF31DFA23
:1009E0001D011E071E0E1E151E1C1E231E2A1E3153
:1009F0001E381E3F1E461E4D1E541E5B1E621E6983
:100A00001E701E771E7E1E851E8C1E931E9B1EA2B0
:100A10001EA91EB01EB71EBE1EC51ECC1ED31EDADA
:100A20001EE21EE91EF01EF71EFE1E051F0D1F14FE
:100A30001F1B1F221F291F301F381F3F1F461F4D1E
:100A40001F551F5C1F631F6A1F721F791F801F873E
:100A50001F8F1F961F9D1FA51FAC1FB31FBB1FC25B
:100A60001FC91FD11FD81FDF1FE71FEE1FF51FFD76
:100A70001F04200C2013201A202220292031203886
:100A800020402047204F2056205D2065206C207498
:100A9000207B2083208A2092209A20A120A920B0A8
:100AA00020B820BF20C720CE20D620DE20E520EDB4
:100AB00020F420FC2004210B2113211B2122212AB8
:100AC00021322139214121492150215821602167BA
:100AD000216F2177217F2186218E2196219E21A5BC
:100AE00021AD21B521BD21C521CC21D421DC21E4BA
:100AF00021EC21F321FB2103220B2213221B2223B1
:100B0000222B2232223A2242222000400080008101
:100B100000B500C900000101016A019201C0010095
:100B20000202024002C002D4020003240376030042
:100B3000043E04B6040005A805000800000F0005E7
:100B4000001400EFFFFEFFF4FF02001100ECFFFBBA
:100B5000FFF1FF00000F000500F9FF0A00FEFFF49F
:100B6000FF02001100ECFFFBFF0C00000000000082
:100B7000000000C0FF0000000000000000000000B6
:100B800000C0FF0000000000000000C0FF000000E7
:100B90000000000000000000000000000000000055
:100BA000000000C0FF0000000000000000C0FF00C7
:100BB0000000000000F4FFFF7FFF7FEFFFFEFFFF5C
:100BC0007F0200F6FFFF7FFF7FF1FF00000F00FFB5
:100BD0007FFF7FFF7FFEFFFF7F02001100FF7FFF8F
:100BE0007FFF7F00000F00FF7FFF7FEFFFFF7FF49D
:100BF000FFFF7FFF7FECFFFF7FF1FF0000F4FFFFAF
:100C00007FFF7FEFFFFF7FF4FF0200F6FFFF7FFF14
:100C10007FF1FF00000F00FF7FFF7FEFFFFF7FF4FA
:100C2000FF02001100FF7FFF7FF1FF0000FF7F0543
:100C300000FF7FEFFFFEFFFF7F0200FF7F0700FF47
:100C40007FF1FF0000FF7F0500FF7F0A00FF7F0F9D
:100C5000000200FF7F0700FF7F0C000000FF7FEA1B
:100C6000FFF9FFFF7FFEFFFF7F0200FF7FECFFFB2E
:100C7000FFFF7F0000FF7F05001400FF7FFEFFFFE6
:100C80007F0200FF7F07001600FF7F0000FF7F0547
:100C900000F9FFFF7FFEFFFF7F0200F6FFFF7FFBF3
:100CA000FFFF7F0000FF7F0500FF7FEFFFFEFFFFDC
:100CB0007F0200FF7FECFFFBFFFF7F0000FF7F054F
:100CC00000FF7FEFFFFEFFFF7F0200FF7F0700FBBB
:100CD000FF0C000000FF7F0500F9FFFF7FFEFFFF14
:100CE0007F0200FF7FECFFFBFFF1FF0000F4FFFF3E
:100CF0007FF9FFFF7FFEFFFF7FFF7FFF7FECFFFBA2
:100D0000FFFF7F0000FF7F0500F9FFFF7FFEFFFF71
:100D10007F0200FF7FFF7FFF7FF1FF0000FF7FFF6B
:100D20007FFF7FEFFFFEFFFF7F0200F6FFFF7FFBED
:100D3000FFFF7F0000FF7F0500FF7FFF7FFF7FF445
:100D4000FF0200FF7FECFFFBFFFF7F0000FF7F053E
:100D500000F9FFFF7FFEFFFF7F0200FF7F0700FB20
:100D6000FFFF7F0000FF7F0500FF7FEFFFFEFFFF1B
:100D70007F0200F6FFFF7FFF7FF1FF0000FF7F058E
:100D800000FF7F0A00FEFFFF7FFF7FF6FFFF7FFB74
:100D9000FFFF7F0000F4FFFF7FFF7FFF7FFEFFFF6D
:100DA0007F0200FF7FFF7FFBFFFF7F0000F4FFFF5C
:100DB0007FF9FFFF7FFF7FFF7F0200FF7FFF7FFB49
:100DC000FFFF7F0000FF7FFF7FF9FFFF7FFEFFFF38
:100DD0007F0200FF7FFF7FFBFFFF7F0000FF7FFFA1
:100DE0007FF9FFFF7FFEFFF4FFFF7FF6FFFF7FFF2E
:100DF0007FFF7F0000FF7FFF7FF9FFEFFFFEFFFF18
:100E00007FFF7FFF7FECFFFBFFFF7F55557777F577
:100E1000F5B5B56F6F0909494949522549DBDBDF53
:100E20007611A919D5C16F01D10E012C016801E01D
:100E300001D002C0037F007F0081FF81FF7F007F20
:100E40000081FF81FF7F007F0081FF81FF7F007FA6
:100E50000081FF81FF7F0081FF7F0081FF7F008194
:100E6000FF7F0081FF7F0081FF7F0081FF7F008186
:100E7000FF7F0081FFC1FFC1FF7F00000081FF00F5
:100E80000000005800000000005800CEFFA8FF003E
:100E9000005800000013002C005D00FCFF2000CB78
:100EA000FFA6FF81FF750020009AFFCBFF6900CBF2
:100EB000FF5D00CBFF58009BFF6B00A1FF5800A80F
:100EC000FF3200DAFF4100A8FF6500A1FF65008145
:100ED000FF3F00E1FF090309040905090B3B0B5320
:100EE0000B6B0B830B9B0BB30BCB0BE30BFB0B13B2
:100EF0000C2B0C430C5B0C730C8B0C5B0CA30CBB12
:100F00000CD30CEB0C030D1B0D330D4B0D630D7B44
:100F10000D930DAB0DC30DDB0DF30D430C0B0E2923
:100F20000E350E550E750E950EB50E000000000024
:100F300000000000000000000000000002020303A7
:100F400004050607080A0C0E111418000304050610
:100F500007090A0C0F12151A1F252D000405060893
:100F6000090B0D1013171C2228313A00050607083B
:100F70000A0C0F1115191E242C353F000405060814
:100F8000090B0D1013171C2228313A000304050623
:100F900007090A0C0F12151A1F252D000202030360
:100FA00004050607080A0C0E1114180000000000C2
:100FB000000000000000000000000000FEFEFDFD3B
:100FC000FCFBFAF9F8F6F4F2EFECE800FDFCFBFAB2
:100FD000F9F7F6F4F1EEEBE6E1DBD300FCFBFAF80F
:100FE000F7F5F3F0EDE9E4DED8CFC600FBFAF9F847
:100FF000F6F4F1EFEBE7E2DCD4CBC100FCFBFAF84E
:10100000F7F5F3F0EDE9E4DED8CFC600FDFCFBFA1E
:10101000F9F7F6F4F1EEEBE6E1DBD300FEFEFDFDC1
:10102000FCFBFAF9F8F6F4F2EFECE8000101020239
:1010300003030404050608090B0D10000101020258
:1010400003030404050608090B0D10000101020248
:1010500003030404050608090B0D10000101020238
:1010600003030404050608090B0D10000101020228
:1010700003030404050608090B0D10000101020218
:1010800003030404050608090B0D10000101020208
:1010900003030404050608090B0D100001010202F8
:1010A00003030404050608090B0D1000FFFFFEFEF4
:1010B000FDFDFCFCFBFAF8F7F5F3F000FFFFFEFE88
:1010C000FDFDFCFCFBFAF8F7F5F3F000FFFFFEFE78
:1010D000FDFDFCFCFBFAF8F7F5F3F000FFFFFEFE68
:1010E000FDFDFCFCFBFAF8F7F5F3F000FFFFFEFE58
:1010F000FDFDFCFCFBFAF8F7F5F3F000FFFFFEFE48
:10110000FDFDFCFCFBFAF8F7F5F3F000FFFFFEFE37
:10111000FDFDFCFCFBFAF8F7F5F3F000FFFFFEFE27
:10112000FDFDFCFCFBFAF8F7F5F3F02B2B2B2B2C39
:101130002C2D2E2E2E2E2E2E2F30303030303131C1
:10114000323333333333333435353535353536375C
:10115000383838373738393A3B3B3A393A3B3D3EF5
:101160003E3D3B3B3C3F434441382BFFF1E8E4E547
:10117000E7EAEBE9E7E5E5E5E6E7E7E5E4E3E3E30E
:10118000E4E4E3E2E1E1E1E1E1E1E0DFDEDEDEDF54
:10119000DFDEDDDCDCDCDCDCDCDBDADAD9D9DAD999
:1011A000D9D8D8D7D7D7D7D7D6D5D5D4D4D5D5D4DD
:1011B000D3D3D2D2D2D2D2D1D0D0CFCFD0D0CFCE23
:1011C000CECDCDCDCDCDCCCCCBCACACBCBCACAC966
:1011D000C8C8C8C8C8C8C6C5C5C5C6C6C6C5C3C2AE
:1011E000C2C3C5C5C4C1BDBCBFC8D5000E181B1B3A
:1011F00018161516181A1B1A1919191A1C1D1D1C58
:101200001C1C1C1D1E1F1F1F1E1F1F2021212121F2
:10121000212222232424242424242526262626268B
:101220002727282929292929292A2B2B37363638F7
:10123000383738393938393A3A393A3C3B3A3C3D13
:101240003C3C3D3E3D3D3E3F3E3E40403F3F4141B8
:10125000404043424142444341434644424547455E
:101260004347494543494C4341515325FFD0D2E1BF
:10127000DFD5D7DDDBD6D8DBD9D5D7D9D7D5D6D8EA
:10128000D5D4D6D6D4D3D5D5D3D2D4D3D2D1D3D224
:10129000D0D0D1D1CFCFD0CFCECECFCECDCECECD60
:1012A000CCCDCDCBCBCCCCCACACBCAC9C9CAC9C894
:1012B000C8C8C8C6C7C7C7C5C6C6C5C4C5C5C4C3D0
:1012C000C4C4C3C2C3C3C1C1C2C2C0C0C1C1BFBF05
:1012D000C0BFBDBEBFBEBCBDBEBDBABCBEBBB9BB40
:1012E000BDB9B7BBBDB6B4BDBFAFACDB002F2D1EC3
:1012F000212A2822252A2824272A2826292B29287A
:101300002A2C2A292B2C2B2B2D2D2C2C2E2E2D2D1F
:101310002F2F2E2F30302F303131303133323233C6
:101320003433333435343435363535373729282995
:101330002A29292B2B2A2C2C2B2C2D2D2C2E2E2DF3
:101340002F302F2F31303032323132333232353488
:101350003335363435373535383836393A37383C21
:1013600039373D3C373C403739463B2C61CAFFEFAB
:10137000E3F0F0E7EAEFE9E8ECEAE6E9EAE6E7E9D4
:10138000E7E5E8E7E4E5E6E4E4E5E4E2E4E3E1E216
:10139000E3E1E0E1E0DFE0E0DEDEDFDDDDDEDDDB5E
:1013A000DCDCDBDBDCDAD9DADAD8D9D9D7D7D8D7A5
:1013B000D6D7D6D5D5D6D4D4D5D4D2D3D3D1D1D2ED
:1013C000D1D0D1D1CFD0D0CECECFCECCCECDCBCC34
:1013D000CDCBCACCCAC8CACAC7C8CAC7C6C9C8C47E
:1013E000C7C8C3C4C9C4BFC8C7BAC5D49E360111D3
:1013F0001D100F191511171813151916151919168F
:10140000191B18191C1A191C1C1A1C1E1C1C1F1E27
:101410001D1F201E1F2120202221212223222324C0
:101420002323252524252625262827272829242562
:101430002729292928272728292B2C2C2C2A2A2A16
:101440002B2D2F302F2E2D2C2D2F31333332302FAB
:101450002F31333637363432313235383B3B39353C
:101460003232353A40424039302B2E3D5A81ABD191
:10147000EEFDFFF9EFE7E4E6EBF0F2F1EDE9E6E689
:10148000E7EAECEDEBE8E5E4E4E6E8E9E8E6E4E2E7
:10149000E2E2E4E5E5E4E2E0DFDFE0E1E2E2E0DE33
:1014A000DDDCDDDEDFDFDEDCDBDAD9DADBDCDCDA7B
:1014B000D8D7D6D7D8D9D9D8D6D5D3D3D4D5D6D6C8
:1014C000D4D3D1D0D1D2D3D3D2D1CECDCDCED0D111
:1014D000D1CFCCCAC9CACCCECFCECBC7C5C5C7CB5E
:1014E000CECECBC5C0BDC0C7D0D5D2C2A67F552EEB
:1014F0001203010711181B1A15100E0F12171A1AD2
:101500001816131315181A1C1B1A181717191C1D57
:101510001E1D1C1B1A1C1D1F21201F1E1E1E2021EC
:10152000232323222121222325262625242424297E
:101530002929282726252423232324252628292B47
:101540002D2F3031323231302F2E2C2B2A292929C0
:101550002A2C2E303336383A3C3D3D3C3A38353231
:101560002E2B292727292C3239434F5D6C7C8D9EE9
:10157000AFBFCEDBE7F0F7FCFEFFFEFCF8F5F0ECCA
:10158000E9E5E3E2E1E1E2E4E5E8E9EBECEDEEEDEB
:10159000ECEBE9E7E5E3E1DFDEDDDDDDDEDFE0E129
:1015A000E3E3E4E4E4E3E2E1DFDDDCDAD9D7D7D654
:1015B000D6D7D8D9DADBDCDCDDDCDCDBDAD8D6D494
:1015C000D2D1CFCFCECECECFD1D2D3D5D6D6D7D6FD
:1015D000D5D4D2CFCDCAC7C5C4C3C3C4C5C8CBCE6A
:1015E000D2D5D7D9D9D7D4CEC6BCB1A39483726192
:1015F000504032241910090401010204070B0F1393
:10160000171A1D1E1F1E1E1C1A1816141312121351
:10161000131517191B1D1F212222232222211F1EF1
:101620001D1C1C1B1C1C1D1F2022242627282929A9
:101630002F2F2F2F2F2E2E2D2C2C2B2A29272625EE
:10164000242321201F1E1D1C1B1A1A1919191919D0
:101650001A1A1B1C1E1F212325282B2E3135383C1E
:1016600041454A4F54595E64696F757A80868C9201
:10167000989EA4AAB0B5BBC0C5CACFD4D8DDE1E559
:10168000E8ECEFF1F4F6F8FAFBFDFEFEFFFFFFFFDA
:10169000FEFEFDFCFBF9F8F6F5F3F1EFEDEBE9E703
:1016A000E5E3E1DFDDDCDAD9D7D6D5D4D3D2D1D1A9
:1016B000D1D1D1D1D1D1D2D2D3D4D5D6D7D8D9DBEB
:1016C000DCDDDEDFE1E2E3E4E5E5E6E6E7E7E7E6E9
:1016D000E6E5E5E3E2E0DFDDDAD8D5D2CFCBC7C37C
:1016E000BFBBB6B1ACA7A29C97918B857F79736D78
:1016F00067615C56504A453F3A35302C27231F1B03
:101700001714110E0C09070604030201010101015F
:1017100001020304050608090B0D0F111315171913
:101720001B1D1E2022242527282A2B2C2D2E2E2F50
:101730002F01010101020202030404050507080943
:10174000090B0C0D0E1012131517181A1C1E20224F
:101750002426282B2D303234363A3C3E4244474A28
:101760004D505256585B5E6164676A6D7174767A4B
:101770007D808386898D909395989C9EA2A5A7AA2B
:10178000AEB1B3B6B9BBBEC1C4C6C9CCCED1D3D538
:10179000D7DADCDEE1E2E4E6E8EAEBEDEFF0F1F3E4
:1017A000F4F5F7F7F9FAFBFBFCFCFEFDFEFFFEFF8C
:1017B000FFFFFFFEFFFFFEFEFDFCFCFBFAFAF8F761
:1017C000F6F5F4F3F1EFEEEDEBEAE8E6E4E2E0DE65
:1017D000DCD9D8D6D2D0CECCC9C7C4C1BFBCB9B66B
:1017E000B3B1AEABA8A4A29F9C9995938F8D8A8725
:1017F00083807D7A7673706D6A6764615E5B58552D
:1018000053504D4A4744423E3C3A3734322F2D2BF9
:1018100028262422201E1C1A1816151312100F0E2B
:101820000C0B0A0907060604040303030202020163
:1018300001015555565758595A5B5C5C5D5E5F60B7
:1018400061626263646566676868696A6B6C6D6D26
:101850006E6F6F7071727374747576777878797A49
:101860007A7B7C7D7E7E7F80808182838484858577
:1018700086878889898A8A8B8C8D8D8E8F8F9090B0
:1018800091929393949495969797989999999A9BF6
:101890009C9D9D9D9E9E9FA0A1A1A2A2A3A3A4A545
:1018A000A6A6A6A7A7A8A9AAAAAAABABACADADAE9F
:1018B000AEAFAFAFB0B1B2B2B2B2B3B4B4B5B6B608
:1018C000B6B6B7B8B9B9BABABABABBBCBDBDBDBD78
:1018D000BDBEBFC0C0C0C0C0C0C1C3C4C4C3C3C3F9
:1018E000C4C5C7C7C7C6C5C6C8CACCCBC8C5C4C887
:1018F000D2E100101A1F1F1D1B1B1D2023242423AF
:10190000232527292A2B2B2B2C2D2F313232333311
:1019100034363739393A3A3B3C3E3F404141424305
:10192000444647474848494B4C4D4E4E4F50515204
:101930005354555B5B5C5E5E5E60616161636363D3
:1019400064666666676969696A6B6C6C6D6E6E6FFA
:101950007071717173747474767676777879797A38
:101960007B7B7B7C7E7E7E7F808080828383838482
:1019700085858687878788898A8A8A8C8C8C8D8ED4
:101980008E8E8F9090919292929394959495969733
:101990009797989999999B9B9B9C9D9D9D9E9F9F96
:1019A0009FA0A1A0A1A2A3A2A3A4A4A4A5A6A6A609
:1019B000A7A8A8A8A9AAA9A9ABABABABADADADAD83
:1019C000AEAFAEAFB0B0B0B1B2B2B1B2B4B3B3B407
:1019D000B5B4B4B6B7B6B6B8B8B7B7BABAB8B9BB93
:1019E000BBB9BABDBCB9BCBFBCBABFC2BCB9C3C627
:1019F000B6B4E600333121252F2D282C312F2D3080
:101A000034323134373535383A38393C3D3B3D3F57
:101A1000403F4042434244464646474949494B4C71
:101A20004C4C4E4F4F505152525355555556585895
:101A300058595B5B545454565757595A5A5B5D5D1D
:101A40005D5F6060616363646566666869696A6B4F
:101A50006B6C6E6E6E70717172737474767777786A
:101A600079797A7B7C7C7D7F7F7F8181818384848F
:101A7000858686878889898A8B8B8C8D8E8E8F90C0
:101A800090919292939495959697979899999A9BFD
:101A90009C9C9D9E9E9EA0A0A0A1A2A2A3A4A4A443
:101AA000A6A6A6A7A8A8A9AAAAAAACACACADAEAE99
:101AB000AEB0B0B0B1B2B2B2B4B4B4B5B6B5B6B8F7
:101AC000B7B7B9B9B9BABBBABBBDBCBCBEBFBDBF65
:101AD000C0BFBFC2C2C0C3C4C2C3C5C4C3C6C7C4DB
:101AE000C7C9C6C6CAC9C6CBCCC7CACFCAC7D1D058
:101AF000C3D0E1A73900112013121E1B161D201C94
:101B00001E232120252624272928292C2C2B2E3062
:101B10002F31333333363736383A393A3D3D3D3F4E
:101B2000414042444444464747494A4A4B4D4D4E42
:101B30005051505254505152545657585858585961
:101B40005B5D5E5F6060606162646567676868686E
:101B5000696A6C6D6F6F6F6F70717274757676777E
:101B60007777787A7B7D7D7E7E7E7F80818384849B
:101B70008585858687898A8B8B8B8B8C8D8E9091C2
:101B800092929292929495969798989898999A9CF6
:101B90009D9E9E9E9E9E9FA0A2A3A4A4A3A3A4A537
:101BA000A7A8A9A9A9A9A9AAABADAEAFAFAEAEAE81
:101BB000AFB1B2B4B4B4B3B3B3B4B6B8B9B9B9B8D9
:101BC000B8B8BABCBDBEBEBDBCBCBDBFC1C2C3C23D
:101BD000C1C0C0C1C4C6C7C7C6C4C3C4C6C9CCCDB2
:101BE000CCC9C6C5C7CBCFD2D3D0CAC6C4C9D2DC34
:101BF000E2DECDAE855A3113030007121C20201CF3
:101C00001715161A1F24262523212123262A2D2EB7
:101C10002D2C2B2C2E3134363636353536383B3D8F
:101C20003E3F3E3E3E404244464747474748494B79
:101C30004D4F50504F505153545556565656565678
:101C400056565758595A5B5D5F6163656668696AA5
:101C50006B6B6B6B6B6B6C6C6C6D6E6F70727375AA
:101C600077787A7B7D7D7E7F7F7F7F7F7F7F80809F
:101C7000818283848688898B8C8E8F9090919191BC
:101C80009191919191929293949697999A9C9D9FFC
:101C9000A0A1A1A2A2A2A2A2A1A1A1A2A2A3A4A525
:101CA000A6A8AAABADAEAFB0B1B1B1B1B1B1B0B051
:101CB000B0B0B0B0B1B3B4B6B7B9BBBDBEBFC0C0B1
:101CC000C0C0BFBEBDBCBCBBBBBCBDBEBFC1C4C62B
:101CD000C8CACCCDCECECECDCCCAC8C6C4C3C2C273
:101CE000C3C5C7CACED3D7DCE0E3E4E4E3DFD9D091
:101CF000C6B9AB9A897767554435271B110904018A
:101D0000000104070C11171C2024282A2B2C2B2B34
:101D10002928272625252526282A2C2F3234373A0C
:101D20003C3E3F40404040403F3F3F3F40404243B9
:101D30004547494B4E50514F4F4F4F4F4F4F4F4FCD
:101D40004F4F4F4F4F4F5050515252535556575976
:101D50005A5C5D5F61636567696B6D6F7173757701
:101D6000797B7C7E7F81828384858687878888894A
:101D70008989898989898989898A8A8A8A8A8A8BCB
:101D80008B8C8C8D8E8F90919293959698999B9D2C
:101D90009EA0A2A4A6A8A9ABADAEB0B2B3B4B5B68E
:101DA000B7B8B9BABABABBBBBBBBBABABAB9B9B899
:101DB000B8B7B7B6B6B6B5B5B5B5B5B6B6B6B7B8C1
:101DC000B9BABCBDBFC1C3C5C7C9CCCED1D3D6D8A3
:101DD000DBDDDFE1E4E5E7E9EAEBEBECECEBEBEA9A
:101DE000E8E6E4E2DFDBD7D3CFCAC4BFB9B3ACA522
:101DF0009E979089817A726A635C544D463F39326E
:101E00002C27211C1814100C0907050302010000DF
:101E1000000102030506090B0D101316191C1F23E0
:101E200026292C2F3235383A3D3F41434547484A11
:101E30004B4C4D4D4E4E4F4F020507090A0C0E10EC
:101E4000121416181A1C1E20222426282A2C2E2F83
:101E500031333537393B3D3F41434547494B4D4F82
:101E600051535456585A5C5E60626466686A6C6E80
:101E700070727476787A7B7D7F81838587898B8D7C
:101E80008F91939597999B9D9FA0A2A4A6A8AAAC79
:101E9000AEB0B2B4B6B8BABCBEC0C2C4C6C7C9CB75
:101EA000CDCFD1D3D5D7D9DBDDDFE1E3E5E7E9EB72
:101EB000EDEFF1F2F4F6F8FAFFFDFAF8F7F5F3F1C9
:101EC000EFEDEBE9E7E5E3E1DFDDDBD9D7D5D3D112
:101ED000CFCDCBC9C7C5C4C2C0BEBCBAB8B6B4B2F8
:101EE000B0AEACAAA8A6A4A2A09E9C9A98969492E2
:101EF000908E8C8A88868583817F7D7B79777573C8
:101F0000716F6D6B69676563615F5D5B59575553B1
:101F1000514F4D4B4948464442403E3C3A38363496
:101F200032302E2C2A28262422201E1C1A18161481
:101F300012100E0C0B09070502020507090B0D0F05
:101F400011131516181A1C1E20222426282A2C2E9E
:101F50003032343537393B3D3F41434547494B4D9E
:101F60004F51535556585A5C5E60626466686A6C9D
:101F70006E7072747677797B7D7F81838587898B9C
:101F80008D8F91939597989A9C9EA0A2A4A6A8AA9B
:101F9000ACAEB0B2B4B6B8BABBBDBFC1C3C5C7C999
:101FA000CBCDCFD1D3D5D7D9DADCDEE0E2E4E6E899
:101FB000EAECEEF0F2F4F6F8F9FFFCFAF9F7F4F3D4
:101FC000F1EFEDEBE9E7E5E3E1DFDDDBD9D7D5D3F1
:101FD000D1CFCDCBC9C7C5C4C2C0BEBCBAB8B6B4D8
:101FE000B2B0AEACAAA8A6A4A2A09E9C9A989694C1
:101FF00092908E8C8B89878583817F7D7B797775A5
:1020000073716F6D6B69676563615F5D5B59575590
:102010005452504E4C4A48464442403E3C3A383670
:102020003432302E2C2A28262422201E1D1B19175C
:102030001513110F0D0B0907050202030507090B04
:102040000D0F11131517191B1D1F21232527292BD0
:102050002D2F31333537383A3C3E40424446484ACA
:102060004C4E50525456585A5C5E60626466686AC0
:102070006C6E70727476787A7C7E80828486888AB0
:102080008C8E9092939597999B9D9FA1A3A5A7A9AC
:10209000ABADAFB1B3B5B7B9BBBDBFC1C3C5C7C9A0
:1020A000CBCDCFD1D3D5D7D9DBDDDFE1E3E5E7E990
:1020B000EBECEFF0F2F4F6F8FAFDFFFEFBF9F8F6C0
:1020C000F3F2F0EEECEAE8E6E4E2E0DEDCDAD8D6C1
:1020D000D4D2D0CECCCAC8C6C4C2C0BEBCBAB8B6B0
:1020E000B4B2B0AEACAAA8A6A4A2A09E9C9A9896A0
:1020F0009492908E8C8A88868482807E7C7A787690
:102100007472706E6C6A68666462605F5D5B59577A
:102110005553514F4D4B49474543413F3D3B39375F
:102120003533312F2D2B29272523211F1D1B19174F
:102130001513110F0D0B0907050302010203050713
:102140000A0C0E10121315171A1C1E202224262802
:102150002A2C2E30323436383A3C3E4042444648EF
:102160004A4C4E50525456585A5C5E6062646668DF
:102170006A6C6E70727476787A7C7E8082848688CF
:102180008A8C8E90929496989A9C9EA0A2A4A6A8BF
:10219000AAACAEB0B2B4B6B8BABCBEC0C2C4C6C8AF
:1021A000CACCCED0D2D4D6D8DADCDEE0E2E4E6E89F
:1021B000EAECEEF0F2F4F6F8FBFDFEFFFFFDFBF9B2
:1021C000F7F4F2F0EFEDEBE9E7E4E2E0DEDDDBD996
:1021D000D7D4D2D0CECCCBC9C6C4C2C0BEBCBAB88C
:1021E000B6B4B2B0AEACAAA8A6A4A2A09E9C9A987F
:1021F000969492908E8C8A88868482807E7C7A786F
:10220000767472706E6C6A68666462605E5C5A585E
:10221000565452504E4C4A48464442403E3C3A384E
:10222000363432302E2C2A28262422201E1C1A183E
:10223000151312100E0C0A07050302010101020317
:102240000406070A0C0E101315181A1C1E2022244F
:1022500026282A2C2E2F313336383A3C3E4043452F
:1022600047494B4D4F51535557595B5D5F6163650E
:1022700067696B6E70727476787A7C7E80828486F1
:10228000888A8C8E90929497999B9D9FA1A3A5A7D5
:10229000A9ABADAFB1B3B5B7B9BBBDBFC2C4C6C8BA
:1022A000CACCCED0D2D4D6D8DADCDEE0E2E4E6E89E
:1022B000EBEDEFF2F4F6F8FAFCFDFEFFFFFFFEFD9A
:1022C000FCFAF9F7F4F2F0EDEBE8E6E4E2E0DEDC4C
:1022D000DAD8D6D4D2D1CFCDCAC8C6C4C2C0BDBB4D
:1022E000B9B7B5B3B1AFADABA9A7A5A3A19F9D9B4E
:1022F00099979592908E8C8A88868482807E7C7A4B
:1023000078767472706E6C69676563615F5D5B5946
:10231000575553514F4D4B49474543403E3C3A3842
:10232000363432302E2C2A28262422201E1C1A183D
:102330001513100E0C0A0706040302010101010126
:102340000202030304050608090B0C0E10121416F2
:10235000181A1C1F212326282B2E303336383B3DDC
:10236000404345484A4D4F525457595B5E60626442
:1023700067696B6D6F71737577787A7C7E80828404
:102380008687898B8D8F91939597999C9EA0A2A506
:10239000A7A9ACAEB0B3B6B8BBBDC0C3C5C8CACDA3
:1023A000D0D2D5D7DADDDFE1E4E6E8EAECEEF0F210
:1023B000F4F5F7F8F9FBFCFCFDFEFEFFFFFFFFFF65
:1023C000FEFEFDFDFCFBFAF8F7F5F4F2F0EEECEAA8
:1023D000E8E6E4E1DFDDDAD8D5D2D0CDCAC8C5C39E
:1023E000C0BDBBB8B6B3B1AEACA9A7A5A2A09E9C18
:1023F00099979593918F8D8B8988868482807E7C36
:102400007A78777573716F6D6B69676462605E5B14
:10241000595754524F4D4A484543403D3B38363357
:10242000302E2B282623211F1C1A18161412100ECA
:102430000C0B090806050403030202010101000157
:102440000205080C11161C232A31394149515961E2
:102450006970777E858B90959A9EA1A4A6A7A8A95E
:10246000A8A7A6A4A29F9C9996928E8A86827D791F
:1024700076726E6B686563615F5E5D5C5B5B5B5C27
:102480005C5D5E5F6162646567686A6B6C6D7380DA
:1024900090A1B2C1CFDAE4ECF3F9FDFFFFFFFEFB40
:1024A000F7F1EBE3DBD2C8BDB2A79B8F83776B5FFD
:1024B00054493F352C241C150F0A06030100000B5C
:1024C00011171E252E363F49525B656E7780888F27
:1024D000979DA3A8ACAFB2B4B5B5B5B3B1AFACA836
:1024E000A49F9A95908A857F7A75706B67635F5C0D
:1024F000595655535252525252545556585A5C5E80
:1025000061636567696A6C6D6E6F6F706F6F6F7313
:102510007D8D9FB1C2D1DDE8F0F7FCFFFFFFFEFA31
:10252000F5EFE7DED4C9BEB2A5988A7D7063564A3E
:102530003E342A2119120C07040100000104070B84
:10254000545A5F6364656665646463626465676A60
:102550006D7175777C8083878A8D9195989A9C9D03
:102560009E9D9C9B9B9B9B9C9FA3A9B0B7C0CBD4DB
:10257000DDE6EEF4F9FEFFFFFFF9EEE1D5C5AF9A17
:102580008775604D3D30241D181415181D242D35F8
:102590003F4C59636D7C8C99A2ADBAC6D0D8E0E5AA
:1025A000E9ECEBE6E0D7CABBAA95826F5C45322521
:1025B000180B0300010004090F161F28303A444D80
:1025C00054DAD2C7BBAD9D8E7E6F6053473D353028
:1025D0002D2C2E31373F48525E6A75818C97A0A80A
:1025E000AEB2B5B6B6B4B0ABA59E968E867E766F0B
:1025F0006964605D5B5A5A5C5E6165696D72767A8A
:102600007E818486888989898887868482817F7E85
:102610007D7D7F899DB5CDE2F1FBFFFFFAF0E3D22E
:10262000BFAA947D67523E2C1C10070200020710BF
:102630001B293A4C5E728598A9B9C7D3DBE1E4E463
:10264000E0DA6770747A7F807D7C79736E6C655E8A
:102650005C5C5A57595E5F6165696B6E717171722E
:1026600073716F6E6E6B6867666361605C57544F21
:10267000474039322B2523201E1D1F2020212323D4
:10268000232323201E1C191512110D090705000212
:102690000A1318263E55657D9BB0C1D9EBEFF4FFB8
:1026A000FEEFE7E2D2BDB1A49181786A5A514B4165
:1026B000342C272018120F0D0E10131A222C394417
:1026C0004E5A67988E7E6F62513C2B231A110C1064
:1026D000161C242F3D4A535E6B757E858D93989A08
:1026E0009B9B9992897E746757493E3329211E1E10
:1026F0001C1D21262A2E32373B3E40424344423E97
:102700003B38322A231F19100B0A07020003040367
:10271000060A10182A3D50627FA2BBC9E1FAFFF9F0
:10272000F4EEDEC2A68F775F4430251F1610141B0F
:102730001D212931363D464C535E6A737C88939A3D
:102740009C9C9C98C2A7896B503B2D292D3A4E67C3
:10275000819BB3C4CFD3CEC2B19B846E5B4C43414B
:1027600046505F718597A7B2B9BAB6ADA092827490
:10277000675F5A5A5D656F7A8690999FA2A29E996B
:10278000928A827B7673727275787D8185888A8A57
:102790008A89878684848798B6D3E4E5D7BA956D0D
:1027A00045240C0102112B4D759DC3E2F7FFFDEE90
:1027B000D5B48F6A472C191216243C5A7C9EBCD57E
:1027C000E4EAE6D8C2CBB08E664327191B24354213
:1027D0005260727E84878482828C98A8B5BDC1BD08
:1027E000B6A7947E614A3730313B49586A7888925F
:1027F0009C9E9C989496979DA0A2A19D988D827472
:102800006454484546505A6A7886929CA4A4A39D75
:102810009892908E8C8E8A898480797068605C58DA
:102820005B616A76808C959EA0A2A09A948C888425
:1028300080807E7C7A7A7480828076727888A5C067
:10284000D9E7EBE7DDCB78808486867E7664584ACC
:10285000464850627486929E9A958A807A767E86E1
:1028600098A4B0B4B0A6968A7A726B6C70768080A9
:1028700084807C726A625E62646E768088909493D3
:10288000928C8A848484878B8E94929080725E541A
:10289000566886ACD4EEF8EACAA07656424A608200
:1028A000A0B8BAAA8A5E3814090C234264809096B4
:1028B0008C8070625C60708092A5BAC0C4BEB5A600
:1028C00094887C76707478B5D0DEDDCCB08D6849A4
:1028D000342B31446081A1BACACDC4B095785D492A
:1028E0003F3F4B5E7790A6B5BBB7AB98836E5D520A
:1028F000505662738596A2A8A8A19587796D6563E5
:10290000656B758089919596938D87807A767576BB
:10291000787C7F8284848482818599B8CDCCB48A86
:10292000592C0C0009275387BAE3FBFFEECC9E6BB2
:102930003D1B0A0D224775A4CCE7F1E9CFAA7E54CE
:10294000321E1A27436890B5EEEEF9F9EEC2968F63
:102950007823004F8364689EBCB7C9E7F5E5BF9450
:1029600075737553364963565C91B9C2C8D2D1CBE1
:10297000C2AB8F80755F4A556B707590ABB6C3CD97
:10298000C8BCAF977E6C513B464D4B5D727E939EAB
:10299000A4A9A08E837C7060595C636C747E898C62
:1029A0008B9095908982818283878B9295959A9E50
:1029B000A2A39FA2A7A8AFB4BCC5D1DBD5E3F0EA20
:1029C000FBFBFCFFEEEAF0F1EE6E8094A4A7A2946C
:1029D0008880828E9AA4A29882746A6E7A848C848B
:1029E00078635A5A687A84867E72686A7686949882
:1029F000968A827E828C969C988C765C48527AB0BD
:102A0000DBDBB4774C4C80C6F6F6BA703835609E86
:102A1000C6BE8C4A1F173864868876543934405EA7
:102A2000788D949286787273869EBAC3B89C7E6EB7
:102A3000728CA8B8AC8A64494B60808E94806246E0
:102A400041516D86928E7E6E666E7898CEE6DEAED1
:102A500080606882A4AA977452444658646A5E50A3
:102A60003A342C364052585B4C3E323A4E687C7CAD
:102A70006E58525B7C97ACA494807C82A0B8C6BC94
:102A8000AA98929AAABABCB4A0968A9094A09E9E44
:102A90008E847472727C808078685A525A64727222
:102AA0006E5A524E5C687A7A76686262707E868A66
:102AB00084807A80828E9696887A68748CBCD8D608
:102AC000AE86728ABEEAF6D4A07678A8642F234533
:102AD00083BDD8C8945831325891C0CEB68452388C
:102AE000426A9BBEC1A57750415178A0B8B3966F9A
:102AF000524D6082A1AFA5896B585A6D899EA498EA
:102B0000816B6166778B98988D7C6F6C727E898FF4
:102B10008D857C77777B80848482807F80869BA074
:102B2000793A13256BC1FAF6B75C13002C81D5FEF8
:102B3000E8A0480E0C4397DEF6D3883A101D5BA937
:102B4000E2E9BD7432183170B6DFD9A864736F81C1
:102B50007F677B96826E8A907C878D818C88828E3F
:102B600079798E79777E737C7A72817A6C86906FB0
:102B700074958E7B8B8E969781BBA467C1D4839707
:102B8000D1BBB3C3CFDDE1E1E4D1CEC6B1BB9E6022
:102B90006F82422139280A0A181200193830385A2F
:102BA0006E7B8E99B8D2C8D4F8F8E7EDFBEAC8D3AB
:102BB000D79A7EA387484D463335211C20202B36DB
:102BC000484C3345825B1D788A386879647A7B5734
:102BD0002D1E23231E1C170F1634525F5C56596896
:102BE000756F563D333130373E2D2D5A6C687775F1
:102BF000676F7061553F2F35392F2C343F484F5246
:102C000050483C3738322117192025232029332FEB
:102C10002B2E2A23201612160E080D110B07000565
:102C2000163B7CBFD0743996FFC745153342342B11
:102C30002E24142C628D9D916D6491B487381524D7
:102C40002C1F181A1513305B75746559647A1B288C
:102C500059FD1012333EDC600F455DEC700A546E76
:102C6000DA80172C57FC100D1D50D800062E51C3CA
:102C70000009335FF3030649637AE90000000000AE
:102C800000000002030302020E1E0C0000000404F8
:102C90000E111F040E1504040404000004040404AF
:102CA000150E0400000008150200000814091503A1
:102CB00005110E0E111F111715150070726D00729F
:102CC0006E67006F700074756E0070727400706FC4
:102CD00072746100706172616D6574657200726119
:102CE0006E6765006F70657261746F720064657401
:102CF000756E65006F73632062616C00737562208E
:102D00006F73632E007061747465726E0067726F0A
:102D10006F7665006F7363696C6C61746F722031DC
:102D2000006F7363696C6C61746F72203200617242
:102D300070656767696F00706572666F726D616E4E
:102D40006365006E6F6E6500626C69740073617715
:102D50000073717561726500747269616E670063FA
:102D60007A00666D0038626974730070776D006E6A
:102D70006F69736500766F77656C0064726F6E655E
:102D8000007377656570007A73796E6300706164B3
:102D900000312B3200313E3200312A3200315E32B6
:102DA000006375740076636100707731007077326C
:102DB0000005310005320005006D6978006E6F690D
:102DC0000073756200726573006375746F666600E8
:102DD0007663610070776D310070776D32006F73CC
:102DE0006331006F736332006F7363312B32006D98
:102DF0006978006E6F697365007375626F73630045
:102E00007265736F0061746B007776310072743194
:102E100000777632007274320073726300647374E8
:102E200000616D740063686E0062706D0073776797
:102E300000736861706500656E76317E766366004A
:102E40006C666F327E766366007265736F6E616E5C
:102E5000636500656E76656C6F7065203100656E28
:102E600076656C6F706520320073657175656E6391
:102E700065720061747461636B00646563617900FD
:102E80007375737461696E0072656C65617365005A
:102E90006C666F312077617665006C666F312072E9
:102EA000617465006C666F322077617665006C66D0
:102EB0006F322072617465006D6F642E00736F75E0
:102EC00072636500646573742E00616D6F756E7456
:102ED000006F63746176650072616761006D69649B
:102EE00069206368616E0074656D706F006D69784C
:102EF00065720066696C746572006C666F73006D54
:102F00006F64756C6174696F6E006B6579626F6177
:102F10007264006F6666006F6E0074726900737190
:102F20007200732668000300736571006C663100DF
:102F30006C663200736571006172700077686C00B6
:102F4000626E64006F6673006376310063763200F0
:102F500063763300726E6400656E3100656E320018
:102F600076656C006E6F7400676174006C666F311B
:102F7000006C666F320073747073657100617270FB
:102F8000006D776865656C0062656E646572006FE0
:102F9000666673657400637631006376320063762B
:102FA000330072616E646F6D00656E763100656E20
:102FB00076320076656C6F006E6F746500676174C1
:102FC000650032373000333030003336300034386B
:102FD000300037323000393630007374617274005B
:102FE0006C656E67746800746F7563682061206B30
:102FF0006E6F6220746F0061737369676E20706119
:1030000072616D6574657200726561647900666FE6
:1030100072206F73207570646174650070617463F1
:10302000682062616E6B00737465702073657175E2
:10303000656E636572006C6F6164002D2D2D2D002F
:10304000736176650065787465726E00783220650C
:103050007874002F3220657874002F3420657874DE
:10306000002F3820657874006D757461626C65207E
:1030700020202076302E353900696E737472756D9C
:10308000656E74732006072D3100657175616C00E3
:103090006A7573740070797468616700312F342029
:1030A000656200312F34206500312F3420656100C6
:1030B0006268616972610067756E616B72006D6153
:1030C0007277610073687265650070757276690069
:1030D00062696C6177610079616D616E006B616638
:1030E00069006268696D706100646172626172009A
:1030F00062616765736800726167657368006B6819
:10310000616D616A006D69276D616C00706172614B
:103110006D650072616E6765730067616E676573E8
:10312000006B616D6573680070616C6173006E6146
:1031300074626861006D2E6B61756E006261697208
:10314000616700622E746F6469006368616E647207
:10315000006B6175736869006A6F676573680072F8
:103160006173696100630203001800F4000C100031
:1031700000035A00140014003C2814503C2800009E
:1031800060030004000005000002000003000107C6
:10319000000E003A0C013F0D01100506200006103C
:1031A0000702000803000900000A00007800000080
:1031B0000000FFFFCCCC4444000000016E65772086
:1031C00020202020100006030C1830000C1A5F1B72
:1031D000BC25E930F73811241FBECFEFD8E0DEBFA1
:1031E000CDBF11E0A0E0B1E0EEE9F6E702C0059046
:1031F0000D92AE3FB107D9F715E0AEEFB1E001C0D7
:103200001D92A53DB107E1F711E3C6EDD1E304C07E
:103210002297FE010E940E3BCC3CD107C9F70E94C9
:10322000C1260C944D3B0C9400001F920F920FB6D8
:103230000F9211242F938F939F93EF93FF932091DD
:10324000C6008091FE019091FF018150891B8F7112
:1032500061F0E091FF01F0E0ED5BFB4F2083809196
:10326000FF018F5F8F718093FF01FF91EF919F911D
:103270008F912F910F900FBE0F901F9018951F9256
:103280000F920FB60F9211242F933F938F939F931A
:10329000AF93BF938091000290910102A09102022E
:1032A000B0910302309104020196A11DB11D232F9C
:1032B0002D5F2D3720F02D570196A11DB11D2093B4
:1032C00004028093000290930102A0930202B09343
:1032D0000302BF91AF919F918F913F912F910F90DA
:1032E0000FBE0F901F901895AB01BC012FB7F8943B
:1032F0008091000290910102A0910202B09103021C
:103300002FBF480F591F6A1F7B1F2FB7F89480915A
:10331000000290910102A0910202B09103022FBF1E
:1033200084179507A607B70780F308958FB7F89419
:10333000209100023091010240910202509103025B
:103340008FBFB901CA01089585B5887F836085BDA7
:1033500084B5836084BDEEE6F0E080818160808387
:1033600008950F931F93CF93DF938C01EB0160E0DF
:1033700070E0AE010E942A3B009719F0EC01C01BDF
:10338000D10BCE01DF91CF911F910F9108951F9323
:10339000CF93DF93EC01162F70E00E94B11990E2F9
:1033A00005C0FE01E80FF11D90838F5F8117C8F300
:1033B000DF91CF911F910895FF920F931F93CF93A9
:1033C000DF93EC01F62E062F10E0B8010E94B11930
:1033D000282F8F15D9F0DE01A00FB11F1297E82F0B
:1033E000F0E03197EC0FFD1F90E030E20DC0921736
:1033F00028F4808111968C93119703C011963C9309
:1034000011979F5F119731979F1588F3DF91CF91A7
:103410001F910F91FF900895089583E08093060215
:103420001092190208952091060230E0F901EE0F82
:10343000FF1FE20FF31FEE0FFF1FE155FE4FE48168
:10344000F0E093E0EE0FFF1F9A95E1F7E556FE4F8F
:103450000190F081E02D099508952091060230E059
:10346000F901EE0FFF1FE20FF31FEE0FFF1FE155F3
:10347000FE4FE481F0E053E0EE0FFF1F5A95E1F7B5
:10348000E956FE4F0680F781E02D09950895809159
:1034900005028823D9F08091060290E0FC01EE0F2E
:1034A000FF1FE80FF91FEE0FFF1FE155FE4FE481EC
:1034B000F0E0A3E0EE0FFF1FAA95E1F7E956FE4FFB
:1034C0000190F081E02D099510920502089581E0A8
:1034D000809305028091060290E0FC01EE0FFF1F31
:1034E000E80FF91FEE0FFF1FE155FE4FE481F0E0FA
:1034F00033E0EE0FFF1F3A95E1F7E756FE4F0190DC
:10350000F081E02D09950895282F80912C028230BA
:1035100069F480912A02E82FF0E0E858FC4F90818E
:10352000920F892F8052813608F490830895E82FF6
:1035300080910602873029F4EF3119F480912B0233
:10354000089580912B0223E0829FC0011124E80F8F
:10355000F0E0EE5DFC4F808108951092B8048F5F1B
:10356000809363040895DB01E82FF0E084E0EE0F20
:10357000FF1F8A95E1F7EA57FB4F20E130E20EC0CA
:103580009C3731F09E3F21F0892F8850883110F40C
:10359000308301C090831196215031969C919923DC
:1035A00011F0222369F708951F93CF93DF939C01B5
:1035B000162FEA016623C1F1009729F4FA0180E38E
:1035C000819361502FC097FF06C08DE289931150FF
:1035D000309521953F4F40E0E42FF0E0E055FB4F60
:1035E000C9016AE070E00E94BC3A80834F5FC90164
:1035F0006AE070E00E94BC3A9B016115710561F7B9
:10360000642FDE0108C04150E42FF0E0E055FB4F8D
:103610008081805D8D934423B1F7FE01E60FF11D9B
:10362000161B612F61111082DF91CF911F910895B8
:10363000282F80913302909134028150891B87702A
:10364000C1F3E0913402F0E0E955FB4F2083809113
:1036500034028F5F8770809334020895E82FFFB79C
:10366000F894529A5A988EEE90E020E001972FEF4E
:103670008F3F9207D9F731E040E050E069EE70E00B
:10368000A0E0832F8E2311F45A9801C05A9ACB01DF
:103690002A2F01972FEF8F3F9207D9F7330F4F5FF4
:1036A0005F4F4830510569F75A9AFFBF8EEE90E0A0
:1036B00020E001972FEF8F3F9207D9F708950895E3
:1036C0009B01E82FF0E0EE0FFF1FEB57FE4F6591D7
:1036D0007491C90150E00E941B3B0895FF920F9323
:1036E0001F93CF93DF938C01EB01F42EFC018081BB
:1036F0000E94971A382F90E0F8012381E22FF0E022
:10370000E859FF4F44912A3059F12B3070F427309B
:1037100061F1283020F4223009F06BC015C0283048
:10372000B9F0293009F065C015C02D3091F12E3067
:1037300020F42B3009F05DC020C02E3009F43CC0CD
:103740002F3009F056C045C0992787FD909551C08C
:1037500001964FC0F4E0FF1508F44BC049E64BC09A
:1037600024E02F1508F052C044C08031910514F0B8
:1037700040973FC00196E8E73AC03370E32FF0E08E
:10378000E858FF4FE4919595879595958795019613
:103790002CC0883291051CF483974AE92CC0813FE4
:1037A00091053CF1315FE32FF0E0EE0FFF1FE75D85
:1037B000F14F859194911DC0FC0124E0F595E795AA
:1037C0002A95E1F7F0E0E458FF4FE4918F70907094
:1037D0000CC0823291051CF08297EEE308C0813163
:1037E00091053CF04197EBE202C0EE2311F0E99322
:1037F000FA94442331F0840FBE014F2D0E94601BC8
:1038000007C06F2DAE010E94D41A02C045E2F3CF6B
:10381000DF91CF911F910F91FF900895FF920F9329
:103820001F93F82E09E012E0B80140E10E94601BEE
:10383000C80160E10E94C71980E0B8010E94B31A74
:103840008F2D8F5FB80140E10E94601BC80160E1CD
:103850000E94C71981E0B8010E94B31A1F910F910D
:10386000FF900895382F80910602873039F43F3158
:1038700029F460932B0260930802089580912B0233
:1038800023E0829FC0011124830F0E94A736089570
:103890000F931F93CF93DF93082F209107028091FE
:1038A00006028C3059F4E22FF0E0EE0FFF1FE75FC5
:1038B000FE4F818180932B0280810CC090E0FC013F
:1038C000EE0FFF1FE80FF91FEE0FFF1FE155FE4F30
:1038D0008581820F0E944124EC011881812F0E9472
:1038E000971A682F70E08B81202F332727FD3095A2
:1038F0009981823089F4772767FD7095620F731F75
:10390000892F992787FD909568177907A4F08A81F8
:10391000992787FD909509C0620F731F892F90E04A
:103920006817790744F08A8190E0861797071CF0A2
:10393000812F0E94321CDF91CF911F910F9108952A
:103940001F93182F862F0E944124FC015181428130
:103950004F5F451B2091010130910201C901817027
:103960009070909581959F4F8070947B36952795A8
:10397000822793279093020180930101692F01C050
:10398000641B6417E8F723E0129F900111248081E3
:10399000650F820F0E94A7361F9108951F9310E0B4
:1039A00080E0612F0E94A01C1F5F1C31C9F710E04E
:1039B000812F6DE10E94A01C812F6EE10E94A01C4E
:1039C000812F6FE10E94A01C1F5F1E3089F71F919D
:1039D0000895CF93DF9380910602873049F58DE1FA
:1039E0000E9441246DE072E043E00E946E1B8EE174
:1039F0000E94412461E172E044E00E946E1B8DE66A
:103A0000809309028FE680930A0284E680930B027A
:103A100080E280930C028EE38093100281E192E0B9
:103A200068E00E94C71980E069E072E00E94B31A62
:103A300020910702809106028C3059F4E22FF0E0C9
:103A4000EE0FFF1FE75FFE4F818180932B02808185
:103A50000CC090E0FC01EE0FFF1FE80FF91FEE0F06
:103A6000FF1FE155FE4F8581820F0E944124EC012A
:103A7000809106028730D1F090E0FC01EE0FFF1F2D
:103A8000E80FF91FEE0FFF1FE155FE4F838169E03C
:103A900072E040E10E94601B89E092E060E10E94D8
:103AA000C71980E069E072E00E94B31A8D8169E075
:103AB00072E04AE00E94601B89E092E06AE00E94A6
:103AC000C719CE0163E172E046E00E946E1B83E1FC
:103AD00092E066E00E94DC1981E069E072E00E94F9
:103AE000B31ADF91CF910895BF92CF92DF92EF92F8
:103AF000FF920F931F93CF93DF93C9E0D2E0E9E0E9
:103B0000CE2EE1E0DE2EBB24809106028C3031F413
:103B1000F601818180932B0280810CC090E0FC0132
:103B2000EE0FFF1FE80FF91FEE0FFF1FE155FE4FCD
:103B300085818B0D0E9441247C01FC018481BE01A2
:103B400043E00E94601B1B82CE0164E00E94DC19EE
:103B50008E010F5E1F4FC701B80143E00E946E1B2C
:103B60001C8AC80164E00E94DC19B394249682E0A8
:103B700090E0C80ED91E94E0B91631F680E069E0F5
:103B800072E00E94B31A81E06AE172E00E94B31A07
:103B9000DF91CF911F910F91FF90EF90DF90CF9029
:103BA000BF9008951F93CF93DF9386E969E072E099
:103BB00040E10E94601B89E092E060E10E94C71929
:103BC00080E069E072E00E94B31AC9E0D2E010E040
:103BD00081E293E0612F0E942623982F8091800339
:103BE000181710F080E208C0892F82958F708A30F4
:103BF00010F4805D01C0895A89931F5F103141F72D
:103C000081E069E072E00E94B31A80912A02805F2D
:103C100080938504DF91CF911F910895EF92FF92D9
:103C20000F931F93182F00912A02F1E2EF2EF3E079
:103C3000FF2EC701602F0E9426231295107F180FB8
:103C4000C701602F412F0E9443231F910F91FF90C6
:103C5000EF90089585E969E072E040E10E94601B01
:103C600089E092E060E10E94C71980E069E072E0BB
:103C70000E94B31A80912D0290E0019662E049E023
:103C800052E00E94D41A89E092E062E00E94DC19BE
:103C900080E280930B02ACE0B2E0E8E7F3E088E07A
:103CA00001900D928150E1F780E28093140290918F
:103CB0002C02923021F480912A028D5E01C08FEF98
:103CC00080938504892F895665E172E044E00E9463
:103CD000601B81E069E072E00E94B31A08950E94BF
:103CE00082350E94B22A81E293E00E94B63708959D
:103CF000EF92FF921F93CF93DF93EB01813041F15D
:103D0000813030F08230A9F1833009F064C047C0BF
:103D100084E0CC0FDD1F8A95E1F77E011F2D1695FB
:103D2000169580912D02181759F080912C02882346
:103D300039F481E293E0612F0E94D5230E946F1E27
:103D400080912C02813009F446C010932D0243C0AB
:103D500080912C02823009F03EC013E0CC0FDD1FB1
:103D60001A95E1F77E018F2D8695869580932A021C
:103D700032C080912C02823071F5CB01880F991FDF
:103D8000E0912A02F0E0E858FC4F860F971FA5E06B
:103D900096958795AA95E1F7805E80831CC0603474
:103DA000710518F410922C0216C080912C02882301
:103DB00051F480912E0280932D0281E293E00E94C3
:103DC000D0230E946F1EC05CD34010F481E001C07C
:103DD00082E080932C02DF91CF911F91FF90EF90B2
:103DE0000895809106028B3071F480912C0282300C
:103DF00051F481E293E060912D020E940A2481E255
:103E000093E00E94E2228BE08093060280912D02D3
:103E100080932E0281E293E00E94CB2381E0809385
:103E20002C020895482F10922A0210922B02109211
:103E300030028FEF8093850481E080930502443047
:103E400031F48BE0809306020E94F11E0895809366
:103E50002C028091060290E09C01220F331F280F54
:103E6000391FF901EE0FFF1FEF54FE4F80814817F5
:103E700031F0E42FF0E0ED5FFE4F808106C0F901E4
:103E8000EE0FFF1FE155FE4F818180930602909156
:103E90000602973021F48091080280932B02E42FD0
:103EA000F0E0ED5FFE4F908308950F931F93CF9343
:103EB000DF93082FEB0180913002882391F0E02FEF
:103EC000F0E0EE0FFF1FE75FFE4F8091310290910F
:103ED0003202918380831092300285E00E94121F8B
:103EE0002DC0809106028C3059F4E02FF0E0EE0FE7
:103EF000FF1FE75FFE4F818180932B0280810CC002
:103F000090E0FC01EE0FFF1FE80FF91FEE0FFF1FFF
:103F1000E155FE4F8581800F0E944124FC011081F4
:103F200073E0D695C7957A95E1F76C2F0E942E2401
:103F3000682F812F0E94321C00930702DF91CF91DE
:103F40001F910F910895E82FAB01809130028823D3
:103F500089F0F0E0EE0FFF1FE75FFE4F8091310226
:103F600090913202918380831092300285E00E940A
:103F7000121F0895E13089F0E13028F0E230E9F0D5
:103F8000E330C9F525C036E0569547953A95E1F7F7
:103F900040938103109207020895CB0126E0969585
:103FA00087952A95E1F780932A029091800391509A
:103FB000981708F590932A020895569547955695B7
:103FC000479581E293E060912A020E94432308957D
:103FD00086E0569547958A95E1F7642F6F5F80914B
:103FE0002A02861710F040932A028EE50E94A73617
:103FF00081E08093070208951F93182F8230F1F11A
:10400000833030F4882359F0813009F0A7C012C002
:10401000833009F481C0843009F0A0C08FC0809142
:1040200006028B3019F40E94953798C085E00E94F3
:10403000121F94C0809106028B3019F40E94CE1C8E
:104040008DC08B3008F08AC090E0FC01EE0FFF1F9E
:10405000E80FF91FEE0FFF1FE155FE4F8091070299
:104060009581890F8093310280912B0280933202D7
:1040700081E90E940E1C1093300270C0693008F470
:104080006DC0809106028B3069F48FE40E94AD1AF6
:104090008CE70E94181B89E00E94181B80E40E9494
:1040A000AD1A5CC080E00E94CB3610922F0280E0F7
:1040B00090E030E22FE3FC01EA57FB4F3083FC0134
:1040C000EB59FB4F2083019680329105A1F78FEFCA
:1040D0008093A6041092B7048093850410E08CE7C7
:1040E0000E942E1B8BE00E942E1B68EC70E080E08B
:1040F00090E00E9474191F5F163089F78DE080935D
:10410000AF048AE080936404529A5A9A81E08093C3
:1041100005020E94471A22C080912F02882311F4C1
:1041200044E601C040E080E060E30E947D3780917A
:104130002F0291E0892780932F0210C0693070F020
:1041400083E90E940E1C2DE088E190E00FB6F89400
:10415000A895809360000FBE209360001F91089582
:104160001F93CF93DF93EC01162F8981843019F4CC
:10417000633009F443C01983133051F58881E82F67
:10418000F0E0EE0FFF1FE75FFB4F6591749180E059
:1041900090E02E813F81220F232F221F330B30E02E
:1041A00040E050E00E947D3A672F782F892F9927B1
:1041B0009B01672B11F421E030E088279927821BAF
:1041C000930B9B838A83892B71F48FEF9FEF09C038
:1041D000E12FF0E03496EE0FFF1FEC0FFD1F808102
:1041E00091819B838A83E12FF0E03A96EE0FFF1FC7
:1041F000EC0FFD1F808191819D838C83DF91CF9196
:104200001F910895FC018FEF9FE3958B848B15869A
:104210001486138E128E8FEF9FEF958F848F118AE5
:10422000108ACF0164E00E94B02008950F931F937D
:10423000CF93DF93EC01742F122FE62FF0E0EE0FF7
:10424000FF1FE75FFB4F2591349140E050E0DA011A
:10425000C90167E0880F991FAA1FBB1F6A95D1F794
:10426000821B930BA40BB50B892F9A2FAB2FBB2767
:104270009C01892B11F421E030E039872887E72F52
:10428000F0E0EE0FFF1FE75FFB4F6591749180E058
:1042900090E02FE7211B30E040E050E00E947D3AA3
:1042A000672F782F892F99279B01672B11F421E025
:1042B00030E088279927821B930B9B878A87812F61
:1042C00090E09695982F8827979587959F8B8E8B52
:1042D0000883DF91CF911F910F910895382F50914E
:1042E000690220E012C0852F90E0DC01AA0FBB1FFD
:1042F000A80FB91FAA5CBD4F8C91831719F4222314
:1043000039F418C0252F12965C91552361F7089552
:10431000822F90E0FC01EE0FFF1FE80FF91FEA5C0F
:10432000FD4F12968C91828340913502EAE6F2E0CD
:1043300090E019C012968C9180936902F5CF81911B
:10434000851781F4242F30E02150304005C0E65914
:10435000FD4F818180839F5FE92FF0E0E217F30733
:10436000B4F303C09F5F941750F3852F90E0FC01D6
:10437000EE0FFF1FE80FF91FEA5CFD4F12828FEF6F
:104380008083118241504093350208950F931F930B
:10439000182F062F0E946E2180913502803171F412
:1043A000E9E3F2E08281882309F49081339682E088
:1043B000E936F807B9F7892F0E946E21E9E3F2E0A8
:1043C00091E080818F3F09F4592F9F5F339691319F
:1043D000C1F7852F90E0FC01EE0FFF1FE80FF91FDA
:1043E000EA5CFD4F809169028283108301835093C0
:1043F00069024091350220E030E022C0D901F90184
:10440000E659FD4F808190E0FC01EE0FFF1FE80FA1
:10441000F91FEA5CFD4F80812F5F3F4F181780F432
:10442000942F08C0E92FF0E0E659FD4F82913196B4
:10443000808391506917B0F3A659BD4F5C930AC0B1
:10444000622F2417D8F2552329F0E42FF0E0E65923
:10445000FD4F50834F5F409335021F910F91089598
:10446000CF93DF9310923502A9E3B2E080E3ED0130
:1044700019928A95E9F780E1EBE6F2E0EF011992F3
:104480008A95E9F710926902FD0133978FEF8083D7
:10449000339692E0E936F907D1F7DF91CF9108958D
:1044A000CF93DF93AC01EC01DC0120E030E0FB01B5
:1044B000E20FF31F11968C91119780832F5F3F4F6E
:1044C00011962C31310599F7FB0130E02E8D222F0A
:1044D0002295207F8D8D282B248F8F8D858F3F5F98
:1044E000239632963A3091F7DA01A55BBF4FFB0174
:1044F000F09620E08D9181932F5F2830D9F7DA0173
:10450000A95ABF4FFB01F89690E08D9181939F5F70
:104510009830D9F7DF91CF910895E1E8F2E08081FA
:10452000813880F4319682E0E539F807C1F77E964C
:104530008081813838F4319682E0EB3BF807C1F78F
:1045400081E0089580E00895CF93DF93AC01EC0102
:10455000DC0120E030E0FB01E20FF31F80811196C7
:104560008C9311972F5F3F4F11962C31310599F79E
:10457000FB0190E0848D8F708D8F248D222F2295EA
:104580002F702E8F858D8F8F9F5F329623969A3056
:1045900089F7DB01D096FA01E55BFF4F20E08D91B2
:1045A00081932F5F2830D9F7FB01F896DA01A95AD9
:1045B000BF4F90E081918D939F5F9830D9F7DF9145
:1045C000CF9108956BE772E00E945022E1E8F0E09D
:1045D00094918091C00085FFFCCF9093C6003196E6
:1045E00080E0E938F807A1F7EBE7F2E030E020815E
:1045F000320F922F92959F708091C00085FFFCCF63
:104600009093C6008091C00085FFFCCF2F7020934F
:10461000C600319682E0EB3BF80749F7932F92955D
:104620009F708091C00085FFFCCF9093C600809161
:10463000C00085FFFCCF3F703093C6008091C00062
:1046400085FFFCCF87EF8093C6000895FC01E05AF8
:10465000FF4F8081E056F040680F6F7070E0CB0133
:104660009595879560FF08C0E80FF91FE55BFF4F40
:1046700080818295807F0895E80FF91FE55BFF4FE9
:104680008081807F0895FC01E05AFF4F8081E056D1
:10469000F040680F6F7070E0CB019595879560FFD3
:1046A00009C0E80FF91FE55BFF4F8081807F4295CD
:1046B0004F7007C0E80FF91FE55BFF4F80818F70D7
:1046C000407F842B80830895CF93DF93EC01603F7C
:1046D00031F41092FD021092FC021092FE028091C1
:1046E000FE028130D9F0813020F0823009F050C0D4
:1046F00039C08091FC02E82FF0E0EF57FF4FE491C2
:10470000E61771F58F5F8093FC02883008F440C093
:1047100081E08093FE021092FC023AC09091FC026C
:10472000292F2695E22FF0E090FF0EC0E558FD4FAF
:104730006F708081682B6083203460F48091FD026B
:10474000860F8093FD0206C0862F8295807FE558F4
:10475000FD4F8083892F8F5F8093FC028238C0F0E9
:1047600082E014C0673F89F49091FD028091BB0202
:10477000981759F40E948D22882339F0CE016BE7F7
:1047800072E00E94A42283E001C084E08093FE02D4
:10479000DF91CF9108956CEB72E00E945022089552
:1047A0006CEB72E00E94A4220895EF92FF920F93A7
:1047B0001F93CF93DF937C01062F10E046E0000F9C
:1047C000111F4A95E1F7C0E0D0E0CE01800F911FA4
:1047D0000E94373BFE01E558FD4F80832196C0348F
:1047E000D10599F70E948D22882331F0C7016BE72C
:1047F00072E00E94A42207C087E590E0E80EF91E4F
:104800008FE3F7018083DF91CF911F910F91FF908C
:10481000EF9008950F931F93CF93DF93162F6BE7BD
:1048200072E00E945022012F10E056E0000F111F8D
:104830005A95E1F7C0E0D0E0FE01E558FD4FCE010A
:10484000800F911F60810E943F3B2196C034D105AB
:1048500099F7DF91CF911F910F910895FC0183810A
:10486000882369F0218182818F5F821B689FC0014C
:104870001124880F892F881F990B622F680F862FAC
:104880000895982F80911101981771F0909311015C
:1048900066E0969FB001112467577F4F8FEF92E03B
:1048A00046E050E00E94123B8FEF92E00895809125
:1048B0003302909134028150891B8770833008F451
:1048C00081C08091B8048F5F8F778093B80488236C
:1048D00039F48091B70480958093B70410926304F3
:1048E0003091750520918504321731F48091B70419
:1048F000882311F04FEF17C090916304992371F052
:10490000332311F03F3051F4E32FF0E0EA57FB4F2F
:104910008081803219F4492F415005C0E32FF0E027
:10492000EA57FB4F4081A32FB0E0FD01EB59FB4F4D
:104930008081481719F4321709F040C08091A6040D
:1049400090E00196A817B90729F4CD018F709070F7
:10495000892B19F5E0913402F0E0E955FB4F8EEF19
:104960008083809134028F5F877080933402E0915E
:104970003402F0E0E955FB4F232F2F702068CD0162
:10498000807F880F991F880F991F282B2083809183
:1049900034028F5F877080933402E0913402F0E03C
:1049A000E955FB4F4083809134028F5F877080937D
:1049B0003402AB59BB4F4C933093A6043F5F3F7119
:1049C00030937505089580910B038F5F80930B03DF
:1049D000833010F010920B03E0910B038E2F8F5F4A
:1049E000877090910001892B80937C0080917A00E0
:1049F000806480937A0080917A0086FDFCCF2091BC
:104A0000780040917900F0E0EB5EFC4F942F80E05D
:104A100030E0822B932B9595879595958795878385
:104A200008951F920F920FB60F9211242F938F9318
:104A30009F93EF93FF938091AF0481508093AF04D5
:104A40008823C9F58DE08093AF04209164042A3057
:104A5000C1F48091340290913302891B877059F11F
:104A6000E0913302F0E0E955FB4F908180913302F1
:104A70008F5F87708093330290936F051092640468
:104A80001AC0222329F45A9881E080937E0510C031
:104A9000293011F45A9A0CC090917E0580916F05CF
:104AA000892311F45A9801C05A9A990F90937E0560
:104AB0002F5F209364048091100390911103891B50
:104AC0008F7779F0E0911103F0E0ED51FB4F908189
:104AD000809111038F5F8F77809311039093B400BF
:104AE00009C080910E0390910F03019690930F03DC
:104AF00080930E03FF91EF919F918F912F910F90D3
:104B00000FBE0F901F901895FC01F595E79580FF5B
:104B100007C0E652FB4F80818F706295607F04C0B2
:104B2000E652FB4F8081807F862B80830895209101
:104B30000E0330910F0380910C0390910D03281701
:104B4000390739F030930D0320930C0381E20E9462
:104B5000AD1A0895982F882311F4559809C08150F3
:104B6000823008F4559A923019F484B5806202C0FC
:104B700084B58F7D84BD08951092050310920903BA
:104B800010920A030895EF92FF921F93CF93DF9341
:104B9000E9EBF4E0119284E0E93DF807D9F7C8E4C5
:104BA000D1E020E041E01BC0203208F020E0E22FFD
:104BB000F0E0E754FB4F8081882311F02F5FF4CFA2
:104BC000408380E290E0612F70E00E94A83A260FB7
:104BD0003F5F311748F34F5F2396483019F0188133
:104BE00030E0F7CF80E090E030E22FE3FC01EA57BD
:104BF000FB4F3083FC01EB59FB4F20830196803241
:104C00009105A1F78FEF8093A6041092B7048093CB
:104C1000850410E08CE70E942E1B8BE00E942E1B67
:104C200068EC70E080E090E00E9474191F5F16301D
:104C300089F78DE08093AF048AE080936404529AF0
:104C40005A9A0E940D1A539A8091B0008062809304
:104C5000B00080918100887F816080938100809185
:104C600080008C7F8160809380008091B100887F7C
:104C700081608093B1008091B0008C7F81608093CF
:104C8000B00080917000816080937000219A8091C3
:104C90008000806880938000229A809180008062EA
:104CA00080938000239A8091B00080688093B00048
:104CB0008CE70E94181B8DE90E94181BE0904401AC
:104CC000F09045018EEF0E94181B81E00E94181B96
:104CD00010E08EEF0E94181B812F805C0E94181B31
:104CE000C0E0D0E0812F8C0FF701E80FF11DE491B7
:104CF0008E2F80620E94181B2196C830D10591F733
:104D00008EEF0E94181B81E00E94181B185F103460
:104D100001F78FE90E940E1C1092C5008FE180936D
:104D2000C4008091C10088608093C1008091C1005F
:104D300080618093C1008091C10080688093C10030
:104D40001092E10481E08093740510927D058093B8
:104D5000E2042098289A0E94AA25579A549A5F9AAA
:104D600081E00E94AA25569A84B58F7784BD549A13
:104D70005E9A0E94AA37DF91CF911F91FF90EF902A
:104D8000089578940E94A41980917A008760809396
:104D90007A0080917A00806880937A001092C10036
:104DA0000E94C3252091E0042F5F203208F020E00C
:104DB000E22FF0E0E754FB4F80818823A9F3209392
:104DC000E00490E00197FC01EE0FFF1FE80FF91FD0
:104DD000EA5BFE4F0190F081E02D0995E3CF1F9330
:104DE00080911103909110038150891B8F7780323D
:104DF000B0F10E9405368091D903882389F090E2B2
:104E000020E8E0911003F0E0ED51FB4F208380910A
:104E100010038F5F8F7780931003915091F713C029
:104E200010E20E94FA2AE0911003F0E0ED51FB4FEE
:104E30008091F0038083809110038F5F8F77809340
:104E40001003115071F78091E503809388008091E1
:104E5000EF0380938A008091E6038093B3001F9153
:104E600008950F931F93CF93DF93EC01162F107FBC
:104E7000062F0F70103F09F454C0802F0E946D2A36
:104E8000882309F071C07FC0802F69814A810BC0DF
:104E90004A81442329F0802F69810E947D3773C0A5
:104EA000802F698140E00E946D376DC069816B374A
:104EB000C9F06C3740F4693789F06A3708F063C08D
:104EC0006837E1F407C06D37A9F06D3778F06038C6
:104ED000A8F459C0802F0E94CB3655C0802F0E9465
:104EE0008D2A51C0802F0E94F7364DC0802F0E941E
:104EF000932A49C0802F0E949E2A45C0802F4A8154
:104F00000E94FA3640C06A8170E07695762F662757
:104F1000779567958981680F711D802F0E94812A7E
:104F200032C00830A9F0093028F4002351F00730CE
:104F300051F50BC00C3091F00F3099F00A3019F593
:104F40000AC089810E94EB361EC00E94E5361BC054
:104F50000E94A92A18C00E94C53615C00E94AF2A17
:104F600012C00E94CE360FC0103B09F49FCF113BF8
:104F700030F4103809F488CF103929F489CF103E65
:104F800011F2103F71F2DF91CF911F910F910895AF
:104F9000FF920F931F9310E0FF24F39402E073C07D
:104FA000E091FE01F0E0ED5BFB4F10818091FE018E
:104FB0008F5F8F718093FE018091C00085FFFCCFD1
:104FC0001093C600183F30F085E093E0612F0E94F7
:104FD000312755C017FF30C010920903F0920A0321
:104FE000812F807F803AA1F0813A28F4803881F0C7
:104FF0008039A9F40DC0803E59F0803F19F0803B04
:1050000071F406C0912F9F70892F8150823018F45F
:1050100000930A0304C0943010F010920A038091A8
:105020000503803F11F40E94E53610930503103FFD
:1050300069F40E94F1360AC080910903E82FF0E07C
:10504000EB5FFC4F11838F5F8093090390910903FD
:1050500080910A03981710F410E011C01091050315
:1050600085E093E0612F0E9431271092090380911F
:105070000503813F20F010920A03109205038091EE
:105080007703813140F48091FF019091FE01891BEB
:105090008F7109F085CF812F90E0807F9070803BE9
:1050A000910581F0813B910524F48039910559F5F2
:1050B00007C0803E910541F0803F910521F506C073
:1050C00081E01FC085E01DC082E01BC0103F11F0D1
:1050D000173FC9F48091FE02833031F0843081F0B3
:1050E000813089F48EE70DC08BE20E94AD1A0E94D8
:1050F00082350E94B22A81E293E00E94B63703C053
:1051000083E20E94AD1A1F910F91FF900895BF9204
:10511000CF92DF92EF92FF920F931F93CF93DF9383
:1051200080911203823A09F4F6C0893A19F0882373
:1051300009F026C11092140382E080931303B0900B
:105140007D0503B10170EB2DF0E0EA58FA4F1081B4
:105150000E949619AB01BC01C0906B05D0906C0504
:10516000E0906D05F0906E05101711F420E013C06B
:10517000E0917D05F0E0EA58FA4F008340936B051B
:1051800050936C0560936D0570936E05013011F0BE
:1051900023E001C022E080917D058F5F80937D0533
:1051A000873011F410927D058091E204882339F054
:1051B00080917D058823B9F51092E20434C0CB01BB
:1051C000BA016C197D098E099F09222349F465589B
:1051D00073408040904038F181E08093140323C0F5
:1051E000223009F56536710581059105E0F024E06E
:1051F0002B1570F0672F7727633020F08B2D0E94DE
:10520000FC1F03C08B2D0E94121F109213030BC0B2
:1052100085E0B81611F081E001C08FEF0E942D1AD1
:1052200081E080931303B090E104EB2DF0E0CF0117
:1052300023E0880F991F2A95E1F720917D05282BFF
:105240005F985C9840E838E0622F70E05D98842FAA
:1052500090E086239723892B11F05C9A01C05C981B
:105260005D9A5C98315011F04695F0CF5D985F9A49
:105270008091000180937C0080917A00806480930B
:105280007A0080917A0086FDFCCF54C0E091E10461
:10529000F0E0EE0FFF1FED59FA4FD183C08320934A
:1052A000700530937105409372055093730591E03A
:1052B0008091E1048F5F8093E104843011F41092B7
:1052C000E10480917405882359F08091E1048823DA
:1052D00011F41092740520E030E040E050E006C088
:1052E000992381F42C193D094E095F09809114031B
:1052F000882379F0255833404040504050F01092B8
:10530000130307C08B2DBE010E94131A81E0809306
:10531000130382EA0CC080911303882319F40E94BE
:10532000471A04C0813011F40E94671A89EA8093F9
:10533000120326C03091780020917900922F80E0EE
:10534000C32FD0E0C82BD92BEE0FFF1FED59FA4F1A
:10535000008111810C1B1D0B095F1F4F0E949619C4
:105360009B01AC01C0907005D0907105E090720572
:10537000F09073050F30110508F088CF90E098CFBA
:10538000DF91CF911F910F91FF90EF90DF90CF9021
:10539000BF900895CF93DF9386E0EAEDF4E0DF015C
:1053A0001D928A95E9F7809106028730F1F4809189
:1053B0002B0290E0FC01EE0FFF1FE80FF91FEF5DDD
:1053C000FC4F858DE82FF0E08B3018F4EB5EFC4F3E
:1053D00002C0EB52FC4F608170E084E075956795E8
:1053E0008A95E1F787E090E018C08C30A1F4C0E026
:1053F000D0E0FE01EB51FC4F608170E0B4E07595A8
:105400006795BA95E1F7CE010E9484252196CB30AD
:10541000D10579F704C090E06FE00E948425809167
:105420003C04882389F020913204822F90E083701D
:105430009070892B49F4222311F46FE001C061E0E0
:105440008BE090E00E9484254091D90420E030E078
:1054500060E070E081E090E0F901F595E795E652B3
:10546000FB4FE0815E2F5F70451710F05F3011F445
:10547000682B792B2B30310591F0880F991FE2951D
:10548000EF704E1710F0EF3011F4682B792B2E5F70
:105490003F4F2C30310519F0880F991FDDCF4F5F3A
:1054A0004F704093D9045E985C9820E038E04CE05F
:1054B0005D98C90186239723892B11F05C9A01C05E
:1054C0005C985D9A5C98415019F035952795F0CF1E
:1054D0005D985E9ADF91CF910895582F8091770360
:1054E00061E10E949C3A992349F040E0292F30E085
:1054F000852F90E001962817390709F441E0842FA1
:10550000089575956795759567957F70607F762B83
:105510007295672F60931A03089580E880931A03A9
:10552000109219030895982F80917703813110F01C
:105530009E5E01C09F5F90937703089580917703EB
:10554000813120F081E180937703089510927703F1
:10555000089580910A04815080930A04089510925E
:105560003C040895209122032F3038F58091A30543
:10557000281731F48091A6058823F9F02C30E9F042
:105580002093A305E22FF0E0EE0FFF1FEE0FFF1FA9
:10559000E55AFE4F80819181A281B381809381057C
:1055A00090938205A0938305B09384051092A6057D
:1055B0002C3019F481E08093A60590912303953057
:1055C00050F48091CF05981721F48091D30588235A
:1055D00011F09093CF0590912D0380919F0598171E
:1055E00031F48091D405882321F09C3011F0909300
:1055F0009F0508950F931F93609120036F5F637061
:10560000609320036623A1F42091010130910201EF
:10561000C90181709070909581959F4F8070947BA7
:105620003695279582279327909302018093010155
:105630008091BA054091CD055091CE052091A405E9
:105640003091A50580FF6AC08A01020F131F1093D5
:10565000A5050093A40560FDA3C060918E0570911F
:105660008F05FB01E10FF11D55911590019DF00192
:105670000095059F0095E00DF11D11245F2F2091ED
:10568000900530919105F901E10FF11D25911590DB
:10569000019DF0010095029F0095E00DF11D112480
:1056A0002F2F40919205249FC0014095549F409513
:1056B000800D911D112440919505392F349F212D86
:1056C00011248091930590919405080F191FFB01F7
:1056D000E10FF11D65911590019DF0010095069F68
:1056E0000095E00DF11D11246F2F649F412D1124B1
:1056F0008091CF05813069F4922F941B809196059B
:10570000292F281B822F80588093A10590939605FE
:1057100047C02058241B2093A10542C0420F531FAD
:105720005093A5054093A40560918E0570918F0557
:10573000FB01E50FF11D65911590419DF00140952C
:10574000469F4095E00DF11D11246F2F209190058B
:1057500030919105F901E50FF11D25911590419DBD
:10576000F0014095429F4095E00DF11D11242F2F2F
:1057700040919205249FC0014095649F4095800D03
:10578000911D112420918705921740F48091CF0537
:10579000823011F0922F02C02695920F9093A105AE
:1057A0000091A105E0918305F09184050995109180
:1057B000A00580912803813039F0813088F0823053
:1057C000D9F0833021F51FC0909186058091F103B7
:1057D000981720F41092A5051092A4059093F10358
:1057E0002091EC03029FC0012095129F2095800D0F
:1057F000911D1124192F0BC0105800581002112DA3
:105800001124105804C010278091EC03180F8091C8
:1058100022038A3009F45CC080912003882309F0B8
:105820003EC04091D0055091D1058091880590915E
:105830008905480F591F5093890540938805609149
:10584000BC057091BD05FB01E50FF11D659115903B
:10585000419DF0014095469F4095E00DF11D1124BA
:105860006F2F2091BE053091BF05F901E50FF11DA5
:1058700025911590419DF0014095429F4095E00D86
:10588000F11D11242F2F4091C005249FC001409588
:10589000649F4095800D911D11249093D205309105
:1058A000EE032091D205239FA0013095139F3095E0
:1058B000400D511D11243091ED0320910201239FD1
:1058C000C0013095539F3095800D911D1124192FE3
:1058D0001093F0031F910F91089580E88093A00525
:1058E00008955091A2055C50252F2295545F822F78
:1058F000807F8093AB052F70E22FF0E0EE0FFF1F4B
:10590000EA5DFE4F808191819093A8058093A70561
:105910002F5F263008F025E0E22FF0E0EE0FFF1FAA
:10592000EA5DFE4F808191819093AA058093A9053D
:105930008091800590E080589F4F1092AC05809335
:10594000AD05805890409595879560EC681B6093F5
:10595000AE055134A8F0550F550F40E6459F900114
:105960005095659F5095200D311D1124459FC00114
:105970005095359F5095800D911D11249093AE0543
:1059800008950F931F930091B8051091B905809168
:10599000850590918605080F191F109386050093C1
:1059A00085058091200380FD5FC06091A7057091FF
:1059B000A805FB01E10FF11D55911590019DF00126
:1059C0000095059F0095E00DF11D11245F2F20919A
:1059D000A9053091AA05F901E10FF11D2591159056
:1059E000019DF0010095029F0095E00DF11D11242D
:1059F0002F2F4091AB05249FC0014095549F4095A7
:105A0000800D911D11244091AE05392F349F212D19
:105A100011248091AC059091AD05080F191FFB0171
:105A2000E10FF11D65911590019DF0010095069F14
:105A30000095E00DF11D11246F2F649F912D11240D
:105A40008091A305813061F4291B922F8091AF05CD
:105A5000281B822F80588093A0059093AF0504C027
:105A60002058291B2093A0051F910F910895209184
:105A7000A2052C50222F2295822F807F8093AB0588
:105A80002F708091A305823011F489E005C0833026
:105A900011F080E101C082E0A82FB0E0FD01E20F2B
:105AA000F11DEE0FFF1FEE5EFE4F808191819093FE
:105AB000A8058093A7052F5F273008F026E0A20FE6
:105AC000B11DAA0FBB1FAE5EBE4F8D919C919093EE
:105AD000AA058093A90508954091B8055091B9058C
